{
  "contractName": "Supra",
  "abi": [
    {
      "inputs": [],
      "stateMutability": "nonpayable",
      "type": "constructor"
    },
    {
      "anonymous": false,
      "inputs": [
        {
          "indexed": false,
          "internalType": "uint256",
          "name": "broker_id",
          "type": "uint256"
        }
      ],
      "name": "BrokerInvalid",
      "type": "event"
    },
    {
      "anonymous": false,
      "inputs": [
        {
          "indexed": false,
          "internalType": "bytes",
          "name": "b",
          "type": "bytes"
        }
      ],
      "name": "LogBytes",
      "type": "event"
    },
    {
      "anonymous": false,
      "inputs": [
        {
          "indexed": false,
          "internalType": "bytes32",
          "name": "b",
          "type": "bytes32"
        }
      ],
      "name": "LogBytes32",
      "type": "event"
    },
    {
      "anonymous": false,
      "inputs": [
        {
          "indexed": true,
          "internalType": "address",
          "name": "from",
          "type": "address"
        },
        {
          "indexed": true,
          "internalType": "uint64",
          "name": "timestamp",
          "type": "uint64"
        },
        {
          "indexed": true,
          "internalType": "uint32",
          "name": "topic",
          "type": "uint32"
        },
        {
          "indexed": false,
          "internalType": "bytes32",
          "name": "prev_hash",
          "type": "bytes32"
        },
        {
          "indexed": false,
          "internalType": "bytes",
          "name": "data",
          "type": "bytes"
        }
      ],
      "name": "NewMessage",
      "type": "event"
    },
    {
      "anonymous": false,
      "inputs": [
        {
          "indexed": true,
          "internalType": "address",
          "name": "_from",
          "type": "address"
        },
        {
          "indexed": true,
          "internalType": "address",
          "name": "_to",
          "type": "address"
        },
        {
          "indexed": false,
          "internalType": "uint256",
          "name": "_value",
          "type": "uint256"
        }
      ],
      "name": "Transfer",
      "type": "event"
    },
    {
      "inputs": [
        {
          "internalType": "bytes4",
          "name": "_ipAddr",
          "type": "bytes4"
        }
      ],
      "name": "registerBroker",
      "outputs": [],
      "stateMutability": "payable",
      "type": "function",
      "payable": true
    },
    {
      "inputs": [],
      "name": "getBrokers",
      "outputs": [
        {
          "components": [
            {
              "internalType": "address payable",
              "name": "account",
              "type": "address"
            },
            {
              "internalType": "bytes4",
              "name": "ipAddr",
              "type": "bytes4"
            }
          ],
          "internalType": "struct Supra.Broker[]",
          "name": "",
          "type": "tuple[]"
        }
      ],
      "stateMutability": "view",
      "type": "function",
      "constant": true
    },
    {
      "inputs": [
        {
          "internalType": "bytes32",
          "name": "_hashedMessage",
          "type": "bytes32"
        },
        {
          "internalType": "uint8",
          "name": "_v",
          "type": "uint8"
        },
        {
          "internalType": "bytes32",
          "name": "_r",
          "type": "bytes32"
        },
        {
          "internalType": "bytes32",
          "name": "_s",
          "type": "bytes32"
        }
      ],
      "name": "VerifyMessage",
      "outputs": [
        {
          "internalType": "address",
          "name": "",
          "type": "address"
        }
      ],
      "stateMutability": "pure",
      "type": "function",
      "constant": true
    },
    {
      "inputs": [
        {
          "internalType": "uint32",
          "name": "topic",
          "type": "uint32"
        },
        {
          "internalType": "bytes",
          "name": "data",
          "type": "bytes"
        },
        {
          "internalType": "uint64",
          "name": "timestamp",
          "type": "uint64"
        },
        {
          "internalType": "bytes32",
          "name": "prev_hash",
          "type": "bytes32"
        }
      ],
      "name": "sendMessage",
      "outputs": [],
      "stateMutability": "nonpayable",
      "type": "function"
    },
    {
      "inputs": [
        {
          "internalType": "uint32",
          "name": "topic",
          "type": "uint32"
        },
        {
          "internalType": "bytes",
          "name": "data",
          "type": "bytes"
        },
        {
          "internalType": "uint64",
          "name": "timestamp",
          "type": "uint64"
        },
        {
          "internalType": "bytes32",
          "name": "prev_hash",
          "type": "bytes32"
        },
        {
          "internalType": "uint8",
          "name": "sig_v",
          "type": "uint8"
        },
        {
          "internalType": "bytes32",
          "name": "sig_r",
          "type": "bytes32"
        },
        {
          "internalType": "bytes32",
          "name": "sig_s",
          "type": "bytes32"
        }
      ],
      "name": "sendMessage",
      "outputs": [
        {
          "internalType": "address",
          "name": "",
          "type": "address"
        }
      ],
      "stateMutability": "pure",
      "type": "function",
      "constant": true
    },
    {
      "inputs": [
        {
          "internalType": "uint64",
          "name": "timestamp",
          "type": "uint64"
        },
        {
          "internalType": "uint32",
          "name": "topic",
          "type": "uint32"
        },
        {
          "internalType": "bytes32",
          "name": "data_hash",
          "type": "bytes32"
        },
        {
          "internalType": "bytes32",
          "name": "prev_hash",
          "type": "bytes32"
        }
      ],
      "name": "messageHash",
      "outputs": [
        {
          "internalType": "bytes32",
          "name": "",
          "type": "bytes32"
        }
      ],
      "stateMutability": "pure",
      "type": "function",
      "constant": true
    },
    {
      "inputs": [
        {
          "internalType": "bytes",
          "name": "data",
          "type": "bytes"
        }
      ],
      "name": "hashData",
      "outputs": [
        {
          "internalType": "bytes32",
          "name": "",
          "type": "bytes32"
        }
      ],
      "stateMutability": "pure",
      "type": "function",
      "constant": true
    },
    {
      "inputs": [
        {
          "internalType": "uint8",
          "name": "sig_v",
          "type": "uint8"
        },
        {
          "internalType": "bytes32",
          "name": "sig_r",
          "type": "bytes32"
        },
        {
          "internalType": "bytes32",
          "name": "sig_s",
          "type": "bytes32"
        }
      ],
      "name": "ackHash",
      "outputs": [
        {
          "internalType": "bytes32",
          "name": "",
          "type": "bytes32"
        }
      ],
      "stateMutability": "pure",
      "type": "function",
      "constant": true
    },
    {
      "inputs": [
        {
          "internalType": "uint256",
          "name": "defendant_id",
          "type": "uint256"
        },
        {
          "internalType": "uint32",
          "name": "topic",
          "type": "uint32"
        },
        {
          "internalType": "bytes32",
          "name": "prev_hash",
          "type": "bytes32"
        },
        {
          "internalType": "bytes32",
          "name": "data_hash",
          "type": "bytes32"
        },
        {
          "internalType": "uint64",
          "name": "timestamp",
          "type": "uint64"
        },
        {
          "internalType": "uint8",
          "name": "sig_v",
          "type": "uint8"
        },
        {
          "internalType": "bytes32",
          "name": "sig_r",
          "type": "bytes32"
        },
        {
          "internalType": "bytes32",
          "name": "sig_s",
          "type": "bytes32"
        }
      ],
      "name": "accuse",
      "outputs": [],
      "stateMutability": "payable",
      "type": "function",
      "payable": true
    },
    {
      "inputs": [
        {
          "internalType": "uint32",
          "name": "accusation_id",
          "type": "uint32"
        },
        {
          "internalType": "uint32",
          "name": "message_id",
          "type": "uint32"
        }
      ],
      "name": "defendOnChain",
      "outputs": [],
      "stateMutability": "nonpayable",
      "type": "function"
    },
    {
      "inputs": [
        {
          "internalType": "uint32",
          "name": "accusation_id",
          "type": "uint32"
        },
        {
          "internalType": "uint8",
          "name": "_v",
          "type": "uint8"
        },
        {
          "internalType": "bytes32",
          "name": "_r",
          "type": "bytes32"
        },
        {
          "internalType": "bytes32",
          "name": "_s",
          "type": "bytes32"
        }
      ],
      "name": "defendOffChain",
      "outputs": [],
      "stateMutability": "nonpayable",
      "type": "function"
    },
    {
      "inputs": [
        {
          "internalType": "address",
          "name": "addr",
          "type": "address"
        }
      ],
      "name": "getBalance",
      "outputs": [
        {
          "internalType": "uint256",
          "name": "",
          "type": "uint256"
        }
      ],
      "stateMutability": "view",
      "type": "function",
      "constant": true
    }
  ],
  "bytecode": "0x608060405234801561001057600080fd5b50611fc0806100206000396000f3fe6080604052600436106100a75760003560e01c80638e001654116100645780638e001654146101f2578063b53297ee1461021d578063e66ef92d14610239578063f303efdb14610276578063f8b2cb4f14610292578063fe9302e7146102cf576100a7565b80630a905cf8146100ac57806333dc0e41146100d55780634a500a6c146100fe57806353e343b31461013b578063659934c114610178578063746bf4dd146101b5575b600080fd5b3480156100b857600080fd5b506100d360048036038101906100ce91906113ad565b6102f8565b005b3480156100e157600080fd5b506100fc60048036038101906100f79190611430565b610462565b005b34801561010a57600080fd5b50610125600480360381019061012091906114a9565b61062c565b604051610132919061150b565b60405180910390f35b34801561014757600080fd5b50610162600480360381019061015d9190611526565b610662565b60405161016f919061150b565b60405180910390f35b34801561018457600080fd5b5061019f600480360381019061019a919061158d565b61069b565b6040516101ac9190611635565b60405180910390f35b3480156101c157600080fd5b506101dc60048036038101906101d79190611650565b610764565b6040516101e99190611635565b60405180910390f35b3480156101fe57600080fd5b50610207610792565b6040516102149190611848565b60405180910390f35b610237600480360381019061023291906118a0565b610898565b005b34801561024557600080fd5b50610260600480360381019061025b9190611956565b610b76565b60405161026d919061150b565b60405180910390f35b610290600480360381019061028b91906119cb565b610b87565b005b34801561029e57600080fd5b506102b960048036038101906102b49190611a24565b610d73565b6040516102c69190611a60565b60405180910390f35b3480156102db57600080fd5b506102f660048036038101906102f19190611a7b565b610dbb565b005b600360003373ffffffffffffffffffffffffffffffffffffffff1673ffffffffffffffffffffffffffffffffffffffff16815260200190815260200160002060008563ffffffff1663ffffffff16815260200190815260200160002060405180606001604052808581526020018467ffffffffffffffff16815260200183815250908060018154018082558091505060019003906000526020600020906003020160009091909190915060008201518160000190805190602001906103be9291906110fe565b5060208201518160010160006101000a81548167ffffffffffffffff021916908367ffffffffffffffff1602179055506040820151816002015550508363ffffffff168267ffffffffffffffff163373ffffffffffffffffffffffffffffffffffffffff167ff8dc5b32120520d174cbad9447a3e4a656cacbedf076de920271c94d3f4cbe6b8487604051610454929190611b6a565b60405180910390a450505050565b600060018363ffffffff168154811061047e5761047d611b9a565b5b90600052602060002090600a020160020160009054906101000a900463ffffffff1690506000600260018563ffffffff16815481106104c0576104bf611b9a565b5b90600052602060002090600a020160010154815481106104e3576104e2611b9a565b5b9060005260206000200160000160009054906101000a900473ffffffffffffffffffffffffffffffffffffffff169050600060018563ffffffff168154811061052f5761052e611b9a565b5b90600052602060002090600a020160050160009054906101000a900467ffffffffffffffff1690506000600360008473ffffffffffffffffffffffffffffffffffffffff1673ffffffffffffffffffffffffffffffffffffffff16815260200190815260200160002060008563ffffffff1663ffffffff1681526020019081526020016000208563ffffffff16815481106105cd576105cc611b9a565b5b906000526020600020906003020160010160009054906101000a900467ffffffffffffffff1690508067ffffffffffffffff168267ffffffffffffffff161461061557600080fd5b6106248663ffffffff16610f0e565b505050505050565b600083838360405160200161064393929190611c20565b6040516020818303038152906040528051906020012090509392505050565b60008484848460405160200161067b9493929190611cc9565b604051602081830303815290604052805190602001209050949350505050565b6000806040518060400160405280601c81526020017f19457468657265756d205369676e6564204d6573736167653a0a3332000000008152509050600081876040516020016106eb929190611d53565b6040516020818303038152906040528051906020012090506000600182888888604051600081526020016040526040516107289493929190611d8a565b6020604051602081039080840390855afa15801561074a573d6000803e3d6000fd5b505050602060405103519050809350505050949350505050565b600061078561077d878a6107778b610b76565b89610662565b85858561069b565b9050979650505050505050565b60606002805480602002602001604051908101604052809291908181526020016000905b8282101561088f578382906000526020600020016040518060400160405290816000820160009054906101000a900473ffffffffffffffffffffffffffffffffffffffff1673ffffffffffffffffffffffffffffffffffffffff1673ffffffffffffffffffffffffffffffffffffffff1681526020016000820160149054906101000a900460e01b7bffffffffffffffffffffffffffffffffffffffffffffffffffffffff19167bffffffffffffffffffffffffffffffffffffffffffffffffffffffff191681525050815260200190600101906107b6565b50505050905090565b600a3410156108a657600080fd5b6000600289815481106108bc576108bb611b9a565b5b9060005260206000200160000160009054906101000a900473ffffffffffffffffffffffffffffffffffffffff1690506109036108fb868a898b610662565b85858561069b565b73ffffffffffffffffffffffffffffffffffffffff168173ffffffffffffffffffffffffffffffffffffffff161461093a57600080fd5b346000803373ffffffffffffffffffffffffffffffffffffffff1673ffffffffffffffffffffffffffffffffffffffff16815260200190815260200160002060008282546109889190611dfe565b9250508190555060016040518061016001604052803373ffffffffffffffffffffffffffffffffffffffff1681526020018b81526020018a63ffffffff1681526020018981526020018881526020018767ffffffffffffffff1681526020018660ff168152602001858152602001848152602001600115158152602001620151806003610a159190611e54565b42610a209190611dfe565b81525090806001815401808255809150506001900390600052602060002090600a020160009091909190915060008201518160000160006101000a81548173ffffffffffffffffffffffffffffffffffffffff021916908373ffffffffffffffffffffffffffffffffffffffff1602179055506020820151816001015560408201518160020160006101000a81548163ffffffff021916908363ffffffff160217905550606082015181600301556080820151816004015560a08201518160050160006101000a81548167ffffffffffffffff021916908367ffffffffffffffff16021790555060c08201518160050160086101000a81548160ff021916908360ff16021790555060e0820151816006015561010082015181600701556101208201518160080160006101000a81548160ff02191690831515021790555061014082015181600901555050505050505050505050565b600081805190602001209050919050565b600a80610b949190611e54565b341015610ba057600080fd5b60005b600280549050811015610c3c573373ffffffffffffffffffffffffffffffffffffffff1660028281548110610bdb57610bda611b9a565b5b9060005260206000200160000160009054906101000a900473ffffffffffffffffffffffffffffffffffffffff1673ffffffffffffffffffffffffffffffffffffffff1603610c2957600080fd5b8080610c3490611eae565b915050610ba3565b50346000803373ffffffffffffffffffffffffffffffffffffffff1673ffffffffffffffffffffffffffffffffffffffff1681526020019081526020016000206000828254610c8b9190611dfe565b92505081905550600260405180604001604052803373ffffffffffffffffffffffffffffffffffffffff168152602001837bffffffffffffffffffffffffffffffffffffffffffffffffffffffff19168152509080600181540180825580915050600190039060005260206000200160009091909190915060008201518160000160006101000a81548173ffffffffffffffffffffffffffffffffffffffff021916908373ffffffffffffffffffffffffffffffffffffffff16021790555060208201518160000160146101000a81548163ffffffff021916908360e01c0217905550505050565b60008060008373ffffffffffffffffffffffffffffffffffffffff1673ffffffffffffffffffffffffffffffffffffffff168152602001908152602001600020549050919050565b600060018563ffffffff1681548110610dd757610dd6611b9a565b5b90600052602060002090600a020160050160089054906101000a900460ff169050600060018663ffffffff1681548110610e1457610e13611b9a565b5b90600052602060002090600a0201600601549050600060018763ffffffff1681548110610e4457610e43611b9a565b5b90600052602060002090600a0201600701549050600060018863ffffffff1681548110610e7457610e73611b9a565b5b90600052602060002090600a020160000160009054906101000a900473ffffffffffffffffffffffffffffffffffffffff169050610ebe610eb685858561062c565b88888861069b565b73ffffffffffffffffffffffffffffffffffffffff168173ffffffffffffffffffffffffffffffffffffffff1614610ef557600080fd5b610f048863ffffffff16610f0e565b5050505050505050565b600060018281548110610f2457610f23611b9a565b5b90600052602060002090600a020160000160009054906101000a900473ffffffffffffffffffffffffffffffffffffffff1690506000600260018481548110610f7057610f6f611b9a565b5b90600052602060002090600a02016001015481548110610f9357610f92611b9a565b5b9060005260206000200160000160009054906101000a900473ffffffffffffffffffffffffffffffffffffffff169050600060018481548110610fd957610fd8611b9a565b5b90600052602060002090600a020160080160006101000a81548160ff021916908315150217905550600a6000808473ffffffffffffffffffffffffffffffffffffffff1673ffffffffffffffffffffffffffffffffffffffff16815260200190815260200160002054101561104d57600080fd5b600a6000808473ffffffffffffffffffffffffffffffffffffffff1673ffffffffffffffffffffffffffffffffffffffff168152602001908152602001600020600082825461109c9190611ef6565b92505081905550600a6000808373ffffffffffffffffffffffffffffffffffffffff1673ffffffffffffffffffffffffffffffffffffffff16815260200190815260200160002060008282546110f29190611dfe565b92505081905550505050565b82805461110a90611f59565b90600052602060002090601f01602090048101928261112c5760008555611173565b82601f1061114557805160ff1916838001178555611173565b82800160010185558215611173579182015b82811115611172578251825591602001919060010190611157565b5b5090506111809190611184565b5090565b5b8082111561119d576000816000905550600101611185565b5090565b6000604051905090565b600080fd5b600080fd5b600063ffffffff82169050919050565b6111ce816111b5565b81146111d957600080fd5b50565b6000813590506111eb816111c5565b92915050565b600080fd5b600080fd5b6000601f19601f8301169050919050565b7f4e487b7100000000000000000000000000000000000000000000000000000000600052604160045260246000fd5b611244826111fb565b810181811067ffffffffffffffff821117156112635761126261120c565b5b80604052505050565b60006112766111a1565b9050611282828261123b565b919050565b600067ffffffffffffffff8211156112a2576112a161120c565b5b6112ab826111fb565b9050602081019050919050565b82818337600083830152505050565b60006112da6112d584611287565b61126c565b9050828152602081018484840111156112f6576112f56111f6565b5b6113018482856112b8565b509392505050565b600082601f83011261131e5761131d6111f1565b5b813561132e8482602086016112c7565b91505092915050565b600067ffffffffffffffff82169050919050565b61135481611337565b811461135f57600080fd5b50565b6000813590506113718161134b565b92915050565b6000819050919050565b61138a81611377565b811461139557600080fd5b50565b6000813590506113a781611381565b92915050565b600080600080608085870312156113c7576113c66111ab565b5b60006113d5878288016111dc565b945050602085013567ffffffffffffffff8111156113f6576113f56111b0565b5b61140287828801611309565b935050604061141387828801611362565b925050606061142487828801611398565b91505092959194509250565b60008060408385031215611447576114466111ab565b5b6000611455858286016111dc565b9250506020611466858286016111dc565b9150509250929050565b600060ff82169050919050565b61148681611470565b811461149157600080fd5b50565b6000813590506114a38161147d565b92915050565b6000806000606084860312156114c2576114c16111ab565b5b60006114d086828701611494565b93505060206114e186828701611398565b92505060406114f286828701611398565b9150509250925092565b61150581611377565b82525050565b600060208201905061152060008301846114fc565b92915050565b600080600080608085870312156115405761153f6111ab565b5b600061154e87828801611362565b945050602061155f878288016111dc565b935050604061157087828801611398565b925050606061158187828801611398565b91505092959194509250565b600080600080608085870312156115a7576115a66111ab565b5b60006115b587828801611398565b94505060206115c687828801611494565b93505060406115d787828801611398565b92505060606115e887828801611398565b91505092959194509250565b600073ffffffffffffffffffffffffffffffffffffffff82169050919050565b600061161f826115f4565b9050919050565b61162f81611614565b82525050565b600060208201905061164a6000830184611626565b92915050565b600080600080600080600060e0888a03121561166f5761166e6111ab565b5b600061167d8a828b016111dc565b975050602088013567ffffffffffffffff81111561169e5761169d6111b0565b5b6116aa8a828b01611309565b96505060406116bb8a828b01611362565b95505060606116cc8a828b01611398565b94505060806116dd8a828b01611494565b93505060a06116ee8a828b01611398565b92505060c06116ff8a828b01611398565b91505092959891949750929550565b600081519050919050565b600082825260208201905092915050565b6000819050602082019050919050565b6000611745826115f4565b9050919050565b6117558161173a565b82525050565b60007fffffffff0000000000000000000000000000000000000000000000000000000082169050919050565b6117908161175b565b82525050565b6040820160008201516117ac600085018261174c565b5060208201516117bf6020850182611787565b50505050565b60006117d18383611796565b60408301905092915050565b6000602082019050919050565b60006117f58261170e565b6117ff8185611719565b935061180a8361172a565b8060005b8381101561183b57815161182288826117c5565b975061182d836117dd565b92505060018101905061180e565b5085935050505092915050565b6000602082019050818103600083015261186281846117ea565b905092915050565b6000819050919050565b61187d8161186a565b811461188857600080fd5b50565b60008135905061189a81611874565b92915050565b600080600080600080600080610100898b0312156118c1576118c06111ab565b5b60006118cf8b828c0161188b565b98505060206118e08b828c016111dc565b97505060406118f18b828c01611398565b96505060606119028b828c01611398565b95505060806119138b828c01611362565b94505060a06119248b828c01611494565b93505060c06119358b828c01611398565b92505060e06119468b828c01611398565b9150509295985092959890939650565b60006020828403121561196c5761196b6111ab565b5b600082013567ffffffffffffffff81111561198a576119896111b0565b5b61199684828501611309565b91505092915050565b6119a88161175b565b81146119b357600080fd5b50565b6000813590506119c58161199f565b92915050565b6000602082840312156119e1576119e06111ab565b5b60006119ef848285016119b6565b91505092915050565b611a0181611614565b8114611a0c57600080fd5b50565b600081359050611a1e816119f8565b92915050565b600060208284031215611a3a57611a396111ab565b5b6000611a4884828501611a0f565b91505092915050565b611a5a8161186a565b82525050565b6000602082019050611a756000830184611a51565b92915050565b60008060008060808587031215611a9557611a946111ab565b5b6000611aa3878288016111dc565b9450506020611ab487828801611494565b9350506040611ac587828801611398565b9250506060611ad687828801611398565b91505092959194509250565b600081519050919050565b600082825260208201905092915050565b60005b83811015611b1c578082015181840152602081019050611b01565b83811115611b2b576000848401525b50505050565b6000611b3c82611ae2565b611b468185611aed565b9350611b56818560208601611afe565b611b5f816111fb565b840191505092915050565b6000604082019050611b7f60008301856114fc565b8181036020830152611b918184611b31565b90509392505050565b7f4e487b7100000000000000000000000000000000000000000000000000000000600052603260045260246000fd5b60008160f81b9050919050565b6000611be182611bc9565b9050919050565b611bf9611bf482611470565b611bd6565b82525050565b6000819050919050565b611c1a611c1582611377565b611bff565b82525050565b6000611c2c8286611be8565b600182019150611c3c8285611c09565b602082019150611c4c8284611c09565b602082019150819050949350505050565b60008160c01b9050919050565b6000611c7582611c5d565b9050919050565b611c8d611c8882611337565b611c6a565b82525050565b60008160e01b9050919050565b6000611cab82611c93565b9050919050565b611cc3611cbe826111b5565b611ca0565b82525050565b6000611cd58287611c7c565b600882019150611ce58286611cb2565b600482019150611cf58285611c09565b602082019150611d058284611c09565b60208201915081905095945050505050565b600081905092915050565b6000611d2d82611ae2565b611d378185611d17565b9350611d47818560208601611afe565b80840191505092915050565b6000611d5f8285611d22565b9150611d6b8284611c09565b6020820191508190509392505050565b611d8481611470565b82525050565b6000608082019050611d9f60008301876114fc565b611dac6020830186611d7b565b611db960408301856114fc565b611dc660608301846114fc565b95945050505050565b7f4e487b7100000000000000000000000000000000000000000000000000000000600052601160045260246000fd5b6000611e098261186a565b9150611e148361186a565b9250827fffffffffffffffffffffffffffffffffffffffffffffffffffffffffffffffff03821115611e4957611e48611dcf565b5b828201905092915050565b6000611e5f8261186a565b9150611e6a8361186a565b9250817fffffffffffffffffffffffffffffffffffffffffffffffffffffffffffffffff0483118215151615611ea357611ea2611dcf565b5b828202905092915050565b6000611eb98261186a565b91507fffffffffffffffffffffffffffffffffffffffffffffffffffffffffffffffff8203611eeb57611eea611dcf565b5b600182019050919050565b6000611f018261186a565b9150611f0c8361186a565b925082821015611f1f57611f1e611dcf565b5b828203905092915050565b7f4e487b7100000000000000000000000000000000000000000000000000000000600052602260045260246000fd5b60006002820490506001821680611f7157607f821691505b602082108103611f8457611f83611f2a565b5b5091905056fea26469706673582212201d2bf40f16402f255ea85e57bc693ffd8ce1e09cda632c3802924fba38b6980a64736f6c634300080d0033",
  "immutableReferences": {},
  "source": "// SPDX-License-Identifier: MIT\npragma solidity >=0.8.13;\n\ncontract Supra {\n\n\tuint constant FINE = 10;\n\tuint constant REGISTER_FEE = FINE * 10;\n\tuint constant ACCUSATION_DEADLINE_DAYS = 3;\n\n\tstruct Accusation {\n\t\taddress payable accuser;\n\t\tuint defendant_id;\n\t\tuint32 topic;\n\t\tbytes32 prev_hash;\n\t\tbytes32 data_hash;\n\t\tuint64 timestamp;\n\n\t\tuint8 sig_v;\n\t\tbytes32 sig_r;\n\t\tbytes32 sig_s;\n\t\tbool valid;\n\t\tuint256 deadline;\n\t}\n\n\tstruct Broker {\n\t\taddress payable account;\n\t\tbytes4 ipAddr;\n\t}\n\n\tstruct Message {\n\t\tbytes data;\n\t\tuint64  timestamp;\n\t\tbytes32 prev_hash;\n\t}\n\n\tmapping (address => uint) balances;\n\t\n\tAccusation[] accusations;\n\tBroker[] brokers;\n\tmapping (address => mapping (uint32 => Message[])) messages;\n\n\tevent Transfer(address indexed _from, address indexed _to, uint256 _value);\n\n\tevent NewMessage(address indexed from, uint64 indexed timestamp, uint32 indexed topic, bytes32 prev_hash, bytes data);\n\n\tevent BrokerInvalid(uint broker_id);\n\n\tevent LogBytes32(bytes32 b);\n\tevent LogBytes(bytes b);\n\n\tconstructor () {\n\t\t\n\t}\n\n\n\tfunction registerBroker(bytes4 _ipAddr) public payable\n\t{\n\t\trequire(msg.value >= REGISTER_FEE);\n\t\tfor (uint i = 0; i < brokers.length; i++) {\n\t\t\trequire(brokers[i].account != msg.sender);\n\t\t}\n\n\t\tbalances[msg.sender] += msg.value;\n\t\tbrokers.push(Broker({\n\t\t\taccount: payable(msg.sender), \n\t\t\tipAddr: _ipAddr\n\t\t}));\n\t}\n\n\tfunction getBrokers() public view returns(Broker[] memory)\n\t{\n\t\treturn brokers;\n\t}\n\n\n    function VerifyMessage(bytes32 _hashedMessage, uint8 _v, bytes32 _r, bytes32 _s) \n\t\tpublic pure returns (address) \n\t{\n        bytes memory prefix = \"\\x19Ethereum Signed Message:\\n32\";\n        bytes32 prefixedHashMessage = keccak256(abi.encodePacked(prefix, _hashedMessage));\n        address signer = ecrecover(prefixedHashMessage, _v, _r, _s);\n        return signer;\n    }\n\n\tfunction sendMessage(\n\t\tuint32 topic, \n\t\tbytes memory data, \n\t\tuint64 timestamp, \n\t\tbytes32 prev_hash, \n\t\tuint8 sig_v, \n\t\tbytes32 sig_r, \n\t\tbytes32 sig_s\n\t) public pure returns (address)\n\t{\n\t\treturn VerifyMessage(\n\t\t\t\tmessageHash(timestamp,topic, hashData(data), prev_hash), \n\t\t\t\tsig_v, sig_r, sig_s);\n\t}\n\tfunction sendMessage(\n\t\tuint32 topic, \n\t\tbytes memory data, \n\t\tuint64 timestamp, \n\t\tbytes32 prev_hash\n\t) public \n\t{\n\t\tmessages[msg.sender][topic].push(Message({\n\t\t\tdata: data,\n\t\t\ttimestamp: timestamp,\n\t\t\tprev_hash: prev_hash\n\t\t}));\n\t\temit NewMessage(msg.sender, timestamp, topic, prev_hash, data);\n\n\t}\n\n\tfunction messageHash(\n\t\tuint64 timestamp,\n\t \tuint32 topic, \n\t\tbytes32 data_hash, \n\t\tbytes32 prev_hash\n    ) public pure returns (bytes32) {\n        return keccak256(abi.encodePacked(timestamp, topic, data_hash, prev_hash));\n    }\n\tfunction hashData(\n        bytes memory data\n    ) public pure returns (bytes32) {\n        return keccak256(data);\n    }\n\n\tfunction ackHash(\n\t\tuint8 sig_v,\n\t\tbytes32 sig_r,\n\t\tbytes32 sig_s\n    ) public pure returns (bytes32) {\n        return keccak256(abi.encodePacked(sig_v, sig_r, sig_s));\n    }\n\n\n\tfunction accuse(\n\t\tuint defendant_id,\n\t \tuint32 topic, \n\t\tbytes32 prev_hash, \n\t\tbytes32 data_hash,\n\t\tuint64 timestamp, \n\t\tuint8 sig_v,\n\t\tbytes32 sig_r,\n\t\tbytes32 sig_s) public payable\n\t{\n\t\trequire(msg.value >= FINE);\n\n\t\taddress defendant = brokers[defendant_id].account;\n\t\trequire(defendant == VerifyMessage(messageHash(timestamp,topic,data_hash,prev_hash), sig_v, sig_r, sig_s));\n\t\tbalances[msg.sender] += msg.value;\n\n\t\taccusations.push(Accusation({\n\t\t\taccuser: payable(msg.sender), \n\t\t\tdefendant_id: defendant_id, \n\t\t\ttopic: topic, \n\t\t\tprev_hash: prev_hash, \n\t\t\tdata_hash: data_hash, \n\t\t\ttimestamp: timestamp,\n\t\t\tsig_v: sig_v,\n\t\t\tsig_r: sig_r,\n\t\t\tsig_s: sig_s,\n\t\t\tvalid: true,\n\t\t\tdeadline: block.timestamp + (ACCUSATION_DEADLINE_DAYS * 1 days)\n\t\t}));\n\t}\n\n\tfunction defendOnChain(uint32 accusation_id, uint32 message_id)\n\t\tpublic\n\t{\n\t\tuint32 topic = accusations[accusation_id].topic;\n\t\taddress defendant = brokers[accusations[accusation_id].defendant_id].account;\n\t\t//bytes32 missing_hash = accusations[accusation_id].data_hash;\n\t\tuint64 missing_timestamp = accusations[accusation_id].timestamp;\n\t\t//address accuser = accusations[accusation_id].accuser;\n\n\t\t//bytes32 data_hash = hashData(Message[defendant][topic].data);\n\t\tuint64 timestamp = messages[defendant][topic][message_id].timestamp;\n\t\trequire(missing_timestamp == timestamp);\n\t\t\n\t\t_payeAccuserFine(accusation_id);\n\t\t\n\t}\n\tfunction defendOffChain(uint32 accusation_id, uint8 _v, bytes32 _r, bytes32 _s)\n\t\tpublic\n\t{\n\t\tuint8 sig_v = accusations[accusation_id].sig_v;\n\t\tbytes32 sig_r = accusations[accusation_id].sig_r; \n\t\tbytes32 sig_s = accusations[accusation_id].sig_s;\n\n\t\taddress accuser = accusations[accusation_id].accuser;\n\t\trequire(accuser == VerifyMessage(ackHash(sig_v, sig_r, sig_s), _v, _r, _s));\n\t\t\t\t\n\t\t_payeAccuserFine(accusation_id);\n\t}\n\n\tfunction redeemAccusationFine(uint accusation_id) private {\n\n\t\trequire(accusations[accusation_id].valid);\n\t\trequire(accusations[accusation_id].deadline < block.timestamp);\n\n\t\taddress accuser = accusations[accusation_id].accuser;\n\t\tuint defendant_id = accusations[accusation_id].defendant_id;\n\t\taddress defendant = brokers[defendant_id].account;\n\n\t\trequire(balances[defendant] >= FINE);\n\t\trequire(balances[accuser] >= FINE);\n\n\t\tbalances[defendant] -= FINE;\n\t\tbalances[accuser] -= FINE;\n\t\tpayable(accuser).transfer( 2 * FINE );\n\n\t\t// after the payment, the broker should still be able to paye a fine\n\t\tif(balances[defendant] < FINE) {\n\t\t\temit BrokerInvalid(defendant_id);\n\t\t}\n\t}\n\n\tfunction _payeAccuserFine(uint accusation_id) private {\n\n\t\taddress accuser = accusations[accusation_id].accuser;\n\t\taddress defendant = brokers[accusations[accusation_id].defendant_id].account;\n\t\taccusations[accusation_id].valid = false;\n\n\t\trequire(balances[accuser] >= FINE);\n\n\t\tbalances[accuser] -= FINE;\n\t\tbalances[defendant] += FINE;\n\t\n\t}\n\n\tfunction getBalance(address addr) public view returns(uint) {\n\t\treturn balances[addr];\n\t}\n\n}\n",
  "sourcePath": "/Users/quentinbramas/Projects/SUPRA/contracts/Supra.sol",
  "compiler": {
    "name": "solc",
    "version": "0.8.13+commit.abaa5c0e.Emscripten.clang"
  },
  "schemaVersion": "3.4.6",
  "updatedAt": "2022-04-11T13:01:15.235Z",
  "networkType": "ethereum",
  "devdoc": {
    "kind": "dev",
    "methods": {},
    "version": 1
  },
  "userdoc": {
    "kind": "user",
    "methods": {},
    "version": 1
  }
}