{
  "contractName": "Supra",
  "abi": [
    {
      "inputs": [],
      "stateMutability": "nonpayable",
      "type": "constructor"
    },
    {
      "anonymous": false,
      "inputs": [
        {
          "indexed": false,
          "internalType": "uint256",
          "name": "broker_id",
          "type": "uint256"
        }
      ],
      "name": "BrokerInvalid",
      "type": "event"
    },
    {
      "anonymous": false,
      "inputs": [
        {
          "indexed": false,
          "internalType": "bytes",
          "name": "b",
          "type": "bytes"
        }
      ],
      "name": "LogBytes",
      "type": "event"
    },
    {
      "anonymous": false,
      "inputs": [
        {
          "indexed": false,
          "internalType": "bytes32",
          "name": "b",
          "type": "bytes32"
        }
      ],
      "name": "LogBytes32",
      "type": "event"
    },
    {
      "anonymous": false,
      "inputs": [
        {
          "indexed": true,
          "internalType": "address",
          "name": "from",
          "type": "address"
        },
        {
          "indexed": true,
          "internalType": "uint64",
          "name": "timestamp",
          "type": "uint64"
        },
        {
          "indexed": true,
          "internalType": "uint32",
          "name": "topic",
          "type": "uint32"
        },
        {
          "indexed": false,
          "internalType": "bytes32",
          "name": "prev_hash",
          "type": "bytes32"
        },
        {
          "indexed": false,
          "internalType": "bytes",
          "name": "data",
          "type": "bytes"
        }
      ],
      "name": "NewMessage",
      "type": "event"
    },
    {
      "anonymous": false,
      "inputs": [
        {
          "indexed": true,
          "internalType": "address",
          "name": "_from",
          "type": "address"
        },
        {
          "indexed": true,
          "internalType": "address",
          "name": "_to",
          "type": "address"
        },
        {
          "indexed": false,
          "internalType": "uint256",
          "name": "_value",
          "type": "uint256"
        }
      ],
      "name": "Transfer",
      "type": "event"
    },
    {
      "inputs": [
        {
          "internalType": "bytes4",
          "name": "_ipAddr",
          "type": "bytes4"
        },
        {
          "internalType": "uint16",
          "name": "_port",
          "type": "uint16"
        }
      ],
      "name": "registerBroker",
      "outputs": [],
      "stateMutability": "payable",
      "type": "function",
      "payable": true
    },
    {
      "inputs": [],
      "name": "getBrokers",
      "outputs": [
        {
          "components": [
            {
              "internalType": "address payable",
              "name": "account",
              "type": "address"
            },
            {
              "internalType": "bytes4",
              "name": "ipAddr",
              "type": "bytes4"
            },
            {
              "internalType": "uint16",
              "name": "port",
              "type": "uint16"
            }
          ],
          "internalType": "struct Supra.Broker[]",
          "name": "",
          "type": "tuple[]"
        }
      ],
      "stateMutability": "view",
      "type": "function",
      "constant": true
    },
    {
      "inputs": [
        {
          "internalType": "bytes32",
          "name": "_hashedMessage",
          "type": "bytes32"
        },
        {
          "internalType": "uint8",
          "name": "_v",
          "type": "uint8"
        },
        {
          "internalType": "bytes32",
          "name": "_r",
          "type": "bytes32"
        },
        {
          "internalType": "bytes32",
          "name": "_s",
          "type": "bytes32"
        }
      ],
      "name": "VerifyMessage",
      "outputs": [
        {
          "internalType": "address",
          "name": "",
          "type": "address"
        }
      ],
      "stateMutability": "pure",
      "type": "function",
      "constant": true
    },
    {
      "inputs": [
        {
          "internalType": "uint32",
          "name": "topic",
          "type": "uint32"
        },
        {
          "internalType": "bytes",
          "name": "data",
          "type": "bytes"
        },
        {
          "internalType": "uint64",
          "name": "timestamp",
          "type": "uint64"
        },
        {
          "internalType": "bytes32",
          "name": "prev_hash",
          "type": "bytes32"
        }
      ],
      "name": "sendMessage",
      "outputs": [],
      "stateMutability": "nonpayable",
      "type": "function"
    },
    {
      "inputs": [
        {
          "internalType": "uint32",
          "name": "topic",
          "type": "uint32"
        },
        {
          "internalType": "bytes",
          "name": "data",
          "type": "bytes"
        },
        {
          "internalType": "uint64",
          "name": "timestamp",
          "type": "uint64"
        },
        {
          "internalType": "bytes32",
          "name": "prev_hash",
          "type": "bytes32"
        },
        {
          "internalType": "uint8",
          "name": "sig_v",
          "type": "uint8"
        },
        {
          "internalType": "bytes32",
          "name": "sig_r",
          "type": "bytes32"
        },
        {
          "internalType": "bytes32",
          "name": "sig_s",
          "type": "bytes32"
        }
      ],
      "name": "sendMessage",
      "outputs": [
        {
          "internalType": "address",
          "name": "",
          "type": "address"
        }
      ],
      "stateMutability": "pure",
      "type": "function",
      "constant": true
    },
    {
      "inputs": [
        {
          "internalType": "uint64",
          "name": "timestamp",
          "type": "uint64"
        },
        {
          "internalType": "uint32",
          "name": "topic",
          "type": "uint32"
        },
        {
          "internalType": "bytes32",
          "name": "data_hash",
          "type": "bytes32"
        },
        {
          "internalType": "bytes32",
          "name": "prev_hash",
          "type": "bytes32"
        }
      ],
      "name": "messageHash",
      "outputs": [
        {
          "internalType": "bytes32",
          "name": "",
          "type": "bytes32"
        }
      ],
      "stateMutability": "pure",
      "type": "function",
      "constant": true
    },
    {
      "inputs": [
        {
          "internalType": "bytes",
          "name": "data",
          "type": "bytes"
        }
      ],
      "name": "hashData",
      "outputs": [
        {
          "internalType": "bytes32",
          "name": "",
          "type": "bytes32"
        }
      ],
      "stateMutability": "pure",
      "type": "function",
      "constant": true
    },
    {
      "inputs": [
        {
          "internalType": "uint64",
          "name": "timestamp",
          "type": "uint64"
        },
        {
          "internalType": "uint32",
          "name": "topic",
          "type": "uint32"
        },
        {
          "internalType": "address",
          "name": "subscriber",
          "type": "address"
        },
        {
          "internalType": "bytes32",
          "name": "prev_hash",
          "type": "bytes32"
        }
      ],
      "name": "hashOpeningSub",
      "outputs": [
        {
          "internalType": "bytes32",
          "name": "",
          "type": "bytes32"
        }
      ],
      "stateMutability": "pure",
      "type": "function",
      "constant": true
    },
    {
      "inputs": [
        {
          "internalType": "uint8",
          "name": "sig_v",
          "type": "uint8"
        },
        {
          "internalType": "bytes32",
          "name": "sig_r",
          "type": "bytes32"
        },
        {
          "internalType": "bytes32",
          "name": "sig_s",
          "type": "bytes32"
        }
      ],
      "name": "ackHash",
      "outputs": [
        {
          "internalType": "bytes32",
          "name": "",
          "type": "bytes32"
        }
      ],
      "stateMutability": "pure",
      "type": "function",
      "constant": true
    },
    {
      "inputs": [
        {
          "internalType": "uint256",
          "name": "defendant_id",
          "type": "uint256"
        },
        {
          "internalType": "uint32",
          "name": "topic",
          "type": "uint32"
        },
        {
          "internalType": "bytes32",
          "name": "prev_hash",
          "type": "bytes32"
        },
        {
          "internalType": "bytes32",
          "name": "data_hash",
          "type": "bytes32"
        },
        {
          "internalType": "uint64",
          "name": "timestamp",
          "type": "uint64"
        },
        {
          "internalType": "uint8",
          "name": "sig_v",
          "type": "uint8"
        },
        {
          "internalType": "bytes32[2]",
          "name": "sig_rs",
          "type": "bytes32[2]"
        },
        {
          "internalType": "uint64",
          "name": "open_timestamp",
          "type": "uint64"
        },
        {
          "internalType": "bytes32",
          "name": "open_prev_hash",
          "type": "bytes32"
        },
        {
          "internalType": "uint8",
          "name": "open_sig_v",
          "type": "uint8"
        },
        {
          "internalType": "bytes32[2]",
          "name": "open_sig_rs",
          "type": "bytes32[2]"
        }
      ],
      "name": "accuse",
      "outputs": [],
      "stateMutability": "payable",
      "type": "function",
      "payable": true
    },
    {
      "inputs": [
        {
          "internalType": "uint32",
          "name": "accusation_id",
          "type": "uint32"
        },
        {
          "internalType": "uint32",
          "name": "message_id",
          "type": "uint32"
        }
      ],
      "name": "defendClosedSubOnChain",
      "outputs": [],
      "stateMutability": "nonpayable",
      "type": "function"
    },
    {
      "inputs": [
        {
          "internalType": "uint32",
          "name": "accusation_id",
          "type": "uint32"
        },
        {
          "internalType": "uint32",
          "name": "topic",
          "type": "uint32"
        },
        {
          "internalType": "uint64",
          "name": "timestamp",
          "type": "uint64"
        },
        {
          "internalType": "bytes",
          "name": "data",
          "type": "bytes"
        },
        {
          "internalType": "bytes32",
          "name": "prevHash",
          "type": "bytes32"
        },
        {
          "internalType": "uint8",
          "name": "_v",
          "type": "uint8"
        },
        {
          "internalType": "bytes32",
          "name": "_r",
          "type": "bytes32"
        },
        {
          "internalType": "bytes32",
          "name": "_s",
          "type": "bytes32"
        }
      ],
      "name": "defendClosedSubOffChain",
      "outputs": [],
      "stateMutability": "nonpayable",
      "type": "function"
    },
    {
      "inputs": [
        {
          "internalType": "uint32",
          "name": "accusation_id",
          "type": "uint32"
        },
        {
          "internalType": "uint32",
          "name": "message_id",
          "type": "uint32"
        }
      ],
      "name": "defendOnChain",
      "outputs": [],
      "stateMutability": "nonpayable",
      "type": "function"
    },
    {
      "inputs": [
        {
          "internalType": "uint32",
          "name": "accusation_id",
          "type": "uint32"
        },
        {
          "internalType": "uint32",
          "name": "topic",
          "type": "uint32"
        },
        {
          "internalType": "uint64",
          "name": "timestamp",
          "type": "uint64"
        },
        {
          "internalType": "bytes32",
          "name": "dataHash",
          "type": "bytes32"
        },
        {
          "internalType": "bytes32",
          "name": "prevHash",
          "type": "bytes32"
        },
        {
          "internalType": "uint8",
          "name": "_v",
          "type": "uint8"
        },
        {
          "internalType": "bytes32",
          "name": "_r",
          "type": "bytes32"
        },
        {
          "internalType": "bytes32",
          "name": "_s",
          "type": "bytes32"
        }
      ],
      "name": "defendOffChain",
      "outputs": [],
      "stateMutability": "nonpayable",
      "type": "function"
    },
    {
      "inputs": [
        {
          "internalType": "address",
          "name": "addr",
          "type": "address"
        }
      ],
      "name": "getBalance",
      "outputs": [
        {
          "internalType": "uint256",
          "name": "",
          "type": "uint256"
        }
      ],
      "stateMutability": "view",
      "type": "function",
      "constant": true
    }
  ],
  "bytecode": "0x608060405234801561001057600080fd5b50613005806100206000396000f3fe6080604052600436106100e85760003560e01c8063659934c11161008a5780638e001654116100595780638e001654146102e6578063de9c6c0414610311578063e66ef92d1461034e578063f8b2cb4f1461038b576100e8565b8063659934c114610227578063746bf4dd14610264578063805cf37c146102a1578063823ddb7f146102ca576100e8565b806333dc0e41116100c657806333dc0e411461015b5780634a500a6c14610184578063521df64e146101c157806353e343b3146101ea576100e8565b80630a905cf8146100ed5780630b212e2814610116578063305c20731461013f575b600080fd5b3480156100f957600080fd5b50610114600480360381019061010f9190612070565b6103c8565b005b34801561012257600080fd5b5061013d6004803603810190610138919061212c565b610542565b005b61015960048036038101906101549190612290565b610873565b005b34801561016757600080fd5b50610182600480360381019061017d91906122d0565b610a8d565b005b34801561019057600080fd5b506101ab60048036038101906101a69190612310565b610d19565b6040516101b89190612372565b60405180910390f35b3480156101cd57600080fd5b506101e860048036038101906101e3919061238d565b610d4f565b005b3480156101f657600080fd5b50610211600480360381019061020c9190612443565b610f63565b60405161021e9190612372565b60405180910390f35b34801561023357600080fd5b5061024e600480360381019061024991906124aa565b610f9c565b60405161025b9190612552565b60405180910390f35b34801561027057600080fd5b5061028b6004803603810190610286919061256d565b611065565b6040516102989190612552565b60405180910390f35b3480156102ad57600080fd5b506102c860048036038101906102c391906122d0565b611093565b005b6102e460048036038101906102df9190612717565b61143f565b005b3480156102f257600080fd5b506102fb6117e7565b604051610308919061293c565b60405180910390f35b34801561031d57600080fd5b506103386004803603810190610333919061298a565b61190d565b6040516103459190612372565b60405180910390f35b34801561035a57600080fd5b50610375600480360381019061037091906129f1565b611946565b6040516103829190612372565b60405180910390f35b34801561039757600080fd5b506103b260048036038101906103ad9190612a3a565b611957565b6040516103bf9190612a76565b60405180910390f35b600360003373ffffffffffffffffffffffffffffffffffffffff1673ffffffffffffffffffffffffffffffffffffffff16815260200190815260200160002060008563ffffffff1663ffffffff16815260200190815260200160002060405180608001604052808581526020018467ffffffffffffffff1681526020018381526020014381525090806001815401808255809150506001900390600052602060002090600402016000909190919091506000820151816000019080519060200190610494929190611dc1565b5060208201518160010160006101000a81548167ffffffffffffffff021916908367ffffffffffffffff160217905550604082015181600201556060820151816003015550508363ffffffff168267ffffffffffffffff163373ffffffffffffffffffffffffffffffffffffffff167ff8dc5b32120520d174cbad9447a3e4a656cacbedf076de920271c94d3f4cbe6b8487604051610534929190612b19565b60405180910390a450505050565b60018863ffffffff168154811061055c5761055b612b49565b5b906000526020600020906010020160020160009054906101000a900463ffffffff1663ffffffff168763ffffffff161461059557600080fd5b600260018963ffffffff16815481106105b1576105b0612b49565b5b906000526020600020906010020160010154815481106105d4576105d3612b49565b5b9060005260206000200160000160009054906101000a900473ffffffffffffffffffffffffffffffffffffffff1673ffffffffffffffffffffffffffffffffffffffff163373ffffffffffffffffffffffffffffffffffffffff161461063957600080fd5b60018863ffffffff168154811061065357610652612b49565b5b906000526020600020906010020160050160009054906101000a900467ffffffffffffffff1667ffffffffffffffff168667ffffffffffffffff161061069857600080fd5b60006106ae87896106a889611946565b88610f63565b9050600060018a63ffffffff16815481106106cc576106cb612b49565b5b906000526020600020906010020160000160009054906101000a900473ffffffffffffffffffffffffffffffffffffffff16905061070c82868686610f9c565b73ffffffffffffffffffffffffffffffffffffffff168173ffffffffffffffffffffffffffffffffffffffff161461074357600080fd5b600061084160018c63ffffffff168154811061076257610761612b49565b5b906000526020600020906010020160080160009054906101000a900467ffffffffffffffff1660018d63ffffffff16815481106107a2576107a1612b49565b5b906000526020600020906010020160020160009054906101000a900463ffffffff1660018e63ffffffff16815481106107de576107dd612b49565b5b906000526020600020906010020160000160009054906101000a900473ffffffffffffffffffffffffffffffffffffffff1660018f63ffffffff168154811061082a57610829612b49565b5b90600052602060002090601002016009015461190d565b90508061084d8961199f565b1461085757600080fd5b6108668b63ffffffff16611a30565b5050505050505050505050565b600a806108809190612ba7565b34101561088c57600080fd5b60005b600280549050811015610928573373ffffffffffffffffffffffffffffffffffffffff16600282815481106108c7576108c6612b49565b5b9060005260206000200160000160009054906101000a900473ffffffffffffffffffffffffffffffffffffffff1673ffffffffffffffffffffffffffffffffffffffff160361091557600080fd5b808061092090612c01565b91505061088f565b50346000803373ffffffffffffffffffffffffffffffffffffffff1673ffffffffffffffffffffffffffffffffffffffff16815260200190815260200160002060008282546109779190612c49565b92505081905550600260405180606001604052803373ffffffffffffffffffffffffffffffffffffffff168152602001847bffffffffffffffffffffffffffffffffffffffffffffffffffffffff191681526020018361ffff168152509080600181540180825580915050600190039060005260206000200160009091909190915060008201518160000160006101000a81548173ffffffffffffffffffffffffffffffffffffffff021916908373ffffffffffffffffffffffffffffffffffffffff16021790555060208201518160000160146101000a81548163ffffffff021916908360e01c021790555060408201518160000160186101000a81548161ffff021916908361ffff16021790555050505050565b600060018363ffffffff1681548110610aa957610aa8612b49565b5b906000526020600020906010020160020160009054906101000a900463ffffffff169050600060018463ffffffff1681548110610ae957610ae8612b49565b5b9060005260206000209060100201600101549050600060028281548110610b1357610b12612b49565b5b9060005260206000200160000160009054906101000a900473ffffffffffffffffffffffffffffffffffffffff169050600060018663ffffffff1681548110610b5f57610b5e612b49565b5b90600052602060002090601002016003015490506000600360008473ffffffffffffffffffffffffffffffffffffffff1673ffffffffffffffffffffffffffffffffffffffff16815260200190815260200160002060008663ffffffff1663ffffffff1681526020019081526020016000208663ffffffff1681548110610be957610be8612b49565b5b906000526020600020906004020190506000610cb78260010160009054906101000a900467ffffffffffffffff1687610cad856000018054610c2a90612cce565b80601f0160208091040260200160405190810160405280929190818152602001828054610c5690612cce565b8015610ca35780601f10610c7857610100808354040283529160200191610ca3565b820191906000526020600020905b815481529060010190602001808311610c8657829003601f168201915b5050505050611946565b8560020154610f63565b9050808314610cc557600080fd5b816003015460018963ffffffff1681548110610ce457610ce3612b49565b5b9060005260206000209060100201600f015411610d0057600080fd5b610d0f8863ffffffff16611a30565b5050505050505050565b6000838383604051602001610d3093929190612d56565b6040516020818303038152906040528051906020012090509392505050565b60018863ffffffff1681548110610d6957610d68612b49565b5b906000526020600020906010020160020160009054906101000a900463ffffffff1663ffffffff168763ffffffff1614610da257600080fd5b600260018963ffffffff1681548110610dbe57610dbd612b49565b5b90600052602060002090601002016001015481548110610de157610de0612b49565b5b9060005260206000200160000160009054906101000a900473ffffffffffffffffffffffffffffffffffffffff1673ffffffffffffffffffffffffffffffffffffffff163373ffffffffffffffffffffffffffffffffffffffff1614610e4657600080fd5b60018863ffffffff1681548110610e6057610e5f612b49565b5b906000526020600020906010020160050160009054906101000a900467ffffffffffffffff1667ffffffffffffffff168667ffffffffffffffff1611610ea557600080fd5b6000610eb387898888610f63565b9050600060018a63ffffffff1681548110610ed157610ed0612b49565b5b906000526020600020906010020160000160009054906101000a900473ffffffffffffffffffffffffffffffffffffffff169050610f1182868686610f9c565b73ffffffffffffffffffffffffffffffffffffffff168173ffffffffffffffffffffffffffffffffffffffff1614610f4857600080fd5b610f578a63ffffffff16611a30565b50505050505050505050565b600084848484604051602001610f7c9493929190612dff565b604051602081830303815290604052805190602001209050949350505050565b6000806040518060400160405280601c81526020017f19457468657265756d205369676e6564204d6573736167653a0a333200000000815250905060008187604051602001610fec929190612e89565b6040516020818303038152906040528051906020012090506000600182888888604051600081526020016040526040516110299493929190612ec0565b6020604051602081039080840390855afa15801561104b573d6000803e3d6000fd5b505050602060405103519050809350505050949350505050565b600061108661107e878a6110788b611946565b89610f63565b858585610f9c565b9050979650505050505050565b600060018363ffffffff16815481106110af576110ae612b49565b5b906000526020600020906010020160020160009054906101000a900463ffffffff169050600060018463ffffffff16815481106110ef576110ee612b49565b5b906000526020600020906010020160010154905060006002828154811061111957611118612b49565b5b9060005260206000200160000160009054906101000a900473ffffffffffffffffffffffffffffffffffffffff169050600060018663ffffffff168154811061116557611164612b49565b5b906000526020600020906010020160050160009054906101000a900467ffffffffffffffff169050600061128b60018863ffffffff16815481106111ac576111ab612b49565b5b906000526020600020906010020160080160009054906101000a900467ffffffffffffffff1660018963ffffffff16815481106111ec576111eb612b49565b5b906000526020600020906010020160020160009054906101000a900463ffffffff1660018a63ffffffff168154811061122857611227612b49565b5b906000526020600020906010020160000160009054906101000a900473ffffffffffffffffffffffffffffffffffffffff1660018b63ffffffff168154811061127457611273612b49565b5b90600052602060002090601002016009015461190d565b90506000600360008573ffffffffffffffffffffffffffffffffffffffff1673ffffffffffffffffffffffffffffffffffffffff16815260200190815260200160002060008763ffffffff1663ffffffff1681526020019081526020016000208763ffffffff168154811061130357611302612b49565b5b906000526020600020906004020190508267ffffffffffffffff168160010160009054906101000a900467ffffffffffffffff1667ffffffffffffffff161061134b57600080fd5b60018863ffffffff168154811061136557611364612b49565b5b9060005260206000209060100201600f015481600301541061138657600080fd5b8161141c82600001805461139990612cce565b80601f01602080910402602001604051908101604052809291908181526020018280546113c590612cce565b80156114125780601f106113e757610100808354040283529160200191611412565b820191906000526020600020905b8154815290600101906020018083116113f557829003601f168201915b505050505061199f565b1461142657600080fd5b6114358863ffffffff16611a30565b5050505050505050565b600a34101561144d57600080fd5b610e10600261145c9190612ba7565b8767ffffffffffffffff166114719190612c49565b42101561147d57600080fd5b61148c8b8b8b8b8b8b8b611c20565b61149a8b8b86868686611cf4565b346000803373ffffffffffffffffffffffffffffffffffffffff1673ffffffffffffffffffffffffffffffffffffffff16815260200190815260200160002060008282546114e89190612c49565b9250508190555060016040518061022001604052803373ffffffffffffffffffffffffffffffffffffffff1681526020018d81526020018c63ffffffff1681526020018b81526020018a81526020018967ffffffffffffffff1681526020018860ff1681526020018760006002811061156457611563612b49565b5b602002015181526020018760016002811061158257611581612b49565b5b602002015181526020018667ffffffffffffffff1681526020018581526020018460ff168152602001836000600281106115bf576115be612b49565b5b60200201518152602001836001600281106115dd576115dc612b49565b5b602002015181526020016001151581526020016201518060036116009190612ba7565b4261160b9190612c49565b815260200143815250908060018154018082558091505060019003906000526020600020906010020160009091909190915060008201518160000160006101000a81548173ffffffffffffffffffffffffffffffffffffffff021916908373ffffffffffffffffffffffffffffffffffffffff1602179055506020820151816001015560408201518160020160006101000a81548163ffffffff021916908363ffffffff160217905550606082015181600301556080820151816004015560a08201518160050160006101000a81548167ffffffffffffffff021916908367ffffffffffffffff16021790555060c08201518160050160086101000a81548160ff021916908360ff16021790555060e0820151816006015561010082015181600701556101208201518160080160006101000a81548167ffffffffffffffff021916908367ffffffffffffffff160217905550610140820151816009015561016082015181600a0160006101000a81548160ff021916908360ff16021790555061018082015181600b01556101a082015181600c01556101c082015181600d0160006101000a81548160ff0219169083151502179055506101e082015181600e015561020082015181600f015550505050505050505050505050565b60606002805480602002602001604051908101604052809291908181526020016000905b82821015611904578382906000526020600020016040518060600160405290816000820160009054906101000a900473ffffffffffffffffffffffffffffffffffffffff1673ffffffffffffffffffffffffffffffffffffffff1673ffffffffffffffffffffffffffffffffffffffff1681526020016000820160149054906101000a900460e01b7bffffffffffffffffffffffffffffffffffffffffffffffffffffffff19167bffffffffffffffffffffffffffffffffffffffffffffffffffffffff191681526020016000820160189054906101000a900461ffff1661ffff1661ffff16815250508152602001906001019061180b565b50505050905090565b6000848484846040516020016119269493929190612f4d565b604051602081830303815290604052805190602001209050949350505050565b600081805190602001209050919050565b60008060008373ffffffffffffffffffffffffffffffffffffffff1673ffffffffffffffffffffffffffffffffffffffff168152602001908152602001600020549050919050565b600060208251146119af57600080fd5b600080600090505b6020811015611a26576008816119cd9190612ba7565b8482815181106119e0576119df612b49565b5b602001015160f81c60f81b7effffffffffffffffffffffffffffffffffffffffffffffffffffffffffffff1916901c821791508080611a1e90612c01565b9150506119b7565b5080915050919050565b600060018281548110611a4657611a45612b49565b5b906000526020600020906010020160000160009054906101000a900473ffffffffffffffffffffffffffffffffffffffff1690506000600260018481548110611a9257611a91612b49565b5b90600052602060002090601002016001015481548110611ab557611ab4612b49565b5b9060005260206000200160000160009054906101000a900473ffffffffffffffffffffffffffffffffffffffff169050600060018481548110611afb57611afa612b49565b5b9060005260206000209060100201600d0160006101000a81548160ff021916908315150217905550600a6000808473ffffffffffffffffffffffffffffffffffffffff1673ffffffffffffffffffffffffffffffffffffffff168152602001908152602001600020541015611b6f57600080fd5b600a6000808473ffffffffffffffffffffffffffffffffffffffff1673ffffffffffffffffffffffffffffffffffffffff1681526020019081526020016000206000828254611bbe9190612f9b565b92505081905550600a6000808373ffffffffffffffffffffffffffffffffffffffff1673ffffffffffffffffffffffffffffffffffffffff1681526020019081526020016000206000828254611c149190612c49565b92505081905550505050565b600060028881548110611c3657611c35612b49565b5b9060005260206000200160000160009054906101000a900473ffffffffffffffffffffffffffffffffffffffff1690506000611c748589888a610f63565b9050611cb2818585600060028110611c8f57611c8e612b49565b5b602002015186600160028110611ca857611ca7612b49565b5b6020020151610f9c565b73ffffffffffffffffffffffffffffffffffffffff168273ffffffffffffffffffffffffffffffffffffffff1614611ce957600080fd5b505050505050505050565b600060028781548110611d0a57611d09612b49565b5b9060005260206000200160000160009054906101000a900473ffffffffffffffffffffffffffffffffffffffff169050611d81611d498688338861190d565b8484600060028110611d5e57611d5d612b49565b5b602002015185600160028110611d7757611d76612b49565b5b6020020151610f9c565b73ffffffffffffffffffffffffffffffffffffffff168173ffffffffffffffffffffffffffffffffffffffff1614611db857600080fd5b50505050505050565b828054611dcd90612cce565b90600052602060002090601f016020900481019282611def5760008555611e36565b82601f10611e0857805160ff1916838001178555611e36565b82800160010185558215611e36579182015b82811115611e35578251825591602001919060010190611e1a565b5b509050611e439190611e47565b5090565b5b80821115611e60576000816000905550600101611e48565b5090565b6000604051905090565b600080fd5b600080fd5b600063ffffffff82169050919050565b611e9181611e78565b8114611e9c57600080fd5b50565b600081359050611eae81611e88565b92915050565b600080fd5b600080fd5b6000601f19601f8301169050919050565b7f4e487b7100000000000000000000000000000000000000000000000000000000600052604160045260246000fd5b611f0782611ebe565b810181811067ffffffffffffffff82111715611f2657611f25611ecf565b5b80604052505050565b6000611f39611e64565b9050611f458282611efe565b919050565b600067ffffffffffffffff821115611f6557611f64611ecf565b5b611f6e82611ebe565b9050602081019050919050565b82818337600083830152505050565b6000611f9d611f9884611f4a565b611f2f565b905082815260208101848484011115611fb957611fb8611eb9565b5b611fc4848285611f7b565b509392505050565b600082601f830112611fe157611fe0611eb4565b5b8135611ff1848260208601611f8a565b91505092915050565b600067ffffffffffffffff82169050919050565b61201781611ffa565b811461202257600080fd5b50565b6000813590506120348161200e565b92915050565b6000819050919050565b61204d8161203a565b811461205857600080fd5b50565b60008135905061206a81612044565b92915050565b6000806000806080858703121561208a57612089611e6e565b5b600061209887828801611e9f565b945050602085013567ffffffffffffffff8111156120b9576120b8611e73565b5b6120c587828801611fcc565b93505060406120d687828801612025565b92505060606120e78782880161205b565b91505092959194509250565b600060ff82169050919050565b612109816120f3565b811461211457600080fd5b50565b60008135905061212681612100565b92915050565b600080600080600080600080610100898b03121561214d5761214c611e6e565b5b600061215b8b828c01611e9f565b985050602061216c8b828c01611e9f565b975050604061217d8b828c01612025565b965050606089013567ffffffffffffffff81111561219e5761219d611e73565b5b6121aa8b828c01611fcc565b95505060806121bb8b828c0161205b565b94505060a06121cc8b828c01612117565b93505060c06121dd8b828c0161205b565b92505060e06121ee8b828c0161205b565b9150509295985092959890939650565b60007fffffffff0000000000000000000000000000000000000000000000000000000082169050919050565b612233816121fe565b811461223e57600080fd5b50565b6000813590506122508161222a565b92915050565b600061ffff82169050919050565b61226d81612256565b811461227857600080fd5b50565b60008135905061228a81612264565b92915050565b600080604083850312156122a7576122a6611e6e565b5b60006122b585828601612241565b92505060206122c68582860161227b565b9150509250929050565b600080604083850312156122e7576122e6611e6e565b5b60006122f585828601611e9f565b925050602061230685828601611e9f565b9150509250929050565b60008060006060848603121561232957612328611e6e565b5b600061233786828701612117565b93505060206123488682870161205b565b92505060406123598682870161205b565b9150509250925092565b61236c8161203a565b82525050565b60006020820190506123876000830184612363565b92915050565b600080600080600080600080610100898b0312156123ae576123ad611e6e565b5b60006123bc8b828c01611e9f565b98505060206123cd8b828c01611e9f565b97505060406123de8b828c01612025565b96505060606123ef8b828c0161205b565b95505060806124008b828c0161205b565b94505060a06124118b828c01612117565b93505060c06124228b828c0161205b565b92505060e06124338b828c0161205b565b9150509295985092959890939650565b6000806000806080858703121561245d5761245c611e6e565b5b600061246b87828801612025565b945050602061247c87828801611e9f565b935050604061248d8782880161205b565b925050606061249e8782880161205b565b91505092959194509250565b600080600080608085870312156124c4576124c3611e6e565b5b60006124d28782880161205b565b94505060206124e387828801612117565b93505060406124f48782880161205b565b92505060606125058782880161205b565b91505092959194509250565b600073ffffffffffffffffffffffffffffffffffffffff82169050919050565b600061253c82612511565b9050919050565b61254c81612531565b82525050565b60006020820190506125676000830184612543565b92915050565b600080600080600080600060e0888a03121561258c5761258b611e6e565b5b600061259a8a828b01611e9f565b975050602088013567ffffffffffffffff8111156125bb576125ba611e73565b5b6125c78a828b01611fcc565b96505060406125d88a828b01612025565b95505060606125e98a828b0161205b565b94505060806125fa8a828b01612117565b93505060a061260b8a828b0161205b565b92505060c061261c8a828b0161205b565b91505092959891949750929550565b6000819050919050565b61263e8161262b565b811461264957600080fd5b50565b60008135905061265b81612635565b92915050565b600067ffffffffffffffff82111561267c5761267b611ecf565b5b602082029050919050565b600080fd5b600061269f61269a84612661565b611f2f565b905080602084028301858111156126b9576126b8612687565b5b835b818110156126e257806126ce888261205b565b8452602084019350506020810190506126bb565b5050509392505050565b600082601f83011261270157612700611eb4565b5b600261270e84828561268c565b91505092915050565b60008060008060008060008060008060006101a08c8e03121561273d5761273c611e6e565b5b600061274b8e828f0161264c565b9b5050602061275c8e828f01611e9f565b9a5050604061276d8e828f0161205b565b995050606061277e8e828f0161205b565b985050608061278f8e828f01612025565b97505060a06127a08e828f01612117565b96505060c06127b18e828f016126ec565b9550506101006127c38e828f01612025565b9450506101206127d58e828f0161205b565b9350506101406127e78e828f01612117565b9250506101606127f98e828f016126ec565b9150509295989b509295989b9093969950565b600081519050919050565b600082825260208201905092915050565b6000819050602082019050919050565b600061284382612511565b9050919050565b61285381612838565b82525050565b612862816121fe565b82525050565b61287181612256565b82525050565b60608201600082015161288d600085018261284a565b5060208201516128a06020850182612859565b5060408201516128b36040850182612868565b50505050565b60006128c58383612877565b60608301905092915050565b6000602082019050919050565b60006128e98261280c565b6128f38185612817565b93506128fe83612828565b8060005b8381101561292f57815161291688826128b9565b9750612921836128d1565b925050600181019050612902565b5085935050505092915050565b6000602082019050818103600083015261295681846128de565b905092915050565b61296781612531565b811461297257600080fd5b50565b6000813590506129848161295e565b92915050565b600080600080608085870312156129a4576129a3611e6e565b5b60006129b287828801612025565b94505060206129c387828801611e9f565b93505060406129d487828801612975565b92505060606129e58782880161205b565b91505092959194509250565b600060208284031215612a0757612a06611e6e565b5b600082013567ffffffffffffffff811115612a2557612a24611e73565b5b612a3184828501611fcc565b91505092915050565b600060208284031215612a5057612a4f611e6e565b5b6000612a5e84828501612975565b91505092915050565b612a708161262b565b82525050565b6000602082019050612a8b6000830184612a67565b92915050565b600081519050919050565b600082825260208201905092915050565b60005b83811015612acb578082015181840152602081019050612ab0565b83811115612ada576000848401525b50505050565b6000612aeb82612a91565b612af58185612a9c565b9350612b05818560208601612aad565b612b0e81611ebe565b840191505092915050565b6000604082019050612b2e6000830185612363565b8181036020830152612b408184612ae0565b90509392505050565b7f4e487b7100000000000000000000000000000000000000000000000000000000600052603260045260246000fd5b7f4e487b7100000000000000000000000000000000000000000000000000000000600052601160045260246000fd5b6000612bb28261262b565b9150612bbd8361262b565b9250817fffffffffffffffffffffffffffffffffffffffffffffffffffffffffffffffff0483118215151615612bf657612bf5612b78565b5b828202905092915050565b6000612c0c8261262b565b91507fffffffffffffffffffffffffffffffffffffffffffffffffffffffffffffffff8203612c3e57612c3d612b78565b5b600182019050919050565b6000612c548261262b565b9150612c5f8361262b565b9250827fffffffffffffffffffffffffffffffffffffffffffffffffffffffffffffffff03821115612c9457612c93612b78565b5b828201905092915050565b7f4e487b7100000000000000000000000000000000000000000000000000000000600052602260045260246000fd5b60006002820490506001821680612ce657607f821691505b602082108103612cf957612cf8612c9f565b5b50919050565b60008160f81b9050919050565b6000612d1782612cff565b9050919050565b612d2f612d2a826120f3565b612d0c565b82525050565b6000819050919050565b612d50612d4b8261203a565b612d35565b82525050565b6000612d628286612d1e565b600182019150612d728285612d3f565b602082019150612d828284612d3f565b602082019150819050949350505050565b60008160c01b9050919050565b6000612dab82612d93565b9050919050565b612dc3612dbe82611ffa565b612da0565b82525050565b60008160e01b9050919050565b6000612de182612dc9565b9050919050565b612df9612df482611e78565b612dd6565b82525050565b6000612e0b8287612db2565b600882019150612e1b8286612de8565b600482019150612e2b8285612d3f565b602082019150612e3b8284612d3f565b60208201915081905095945050505050565b600081905092915050565b6000612e6382612a91565b612e6d8185612e4d565b9350612e7d818560208601612aad565b80840191505092915050565b6000612e958285612e58565b9150612ea18284612d3f565b6020820191508190509392505050565b612eba816120f3565b82525050565b6000608082019050612ed56000830187612363565b612ee26020830186612eb1565b612eef6040830185612363565b612efc6060830184612363565b95945050505050565b60008160601b9050919050565b6000612f1d82612f05565b9050919050565b6000612f2f82612f12565b9050919050565b612f47612f4282612531565b612f24565b82525050565b6000612f598287612db2565b600882019150612f698286612de8565b600482019150612f798285612f36565b601482019150612f898284612d3f565b60208201915081905095945050505050565b6000612fa68261262b565b9150612fb18361262b565b925082821015612fc457612fc3612b78565b5b82820390509291505056fea2646970667358221220ab187fe9c561214e5f9865dee11cd015b4ee6733b5550081e489996377fcfe8c64736f6c634300080d0033",
  "immutableReferences": {},
  "source": "// SPDX-License-Identifier: MIT\npragma solidity >=0.8.13;\n\ncontract Supra {\n\n\tuint constant FINE = 10;\n\tuint constant REGISTER_FEE = FINE * 10;\n\tuint constant ACCUSATION_DEADLINE_DAYS = 3;\n\tuint constant MESSAGE_MAX_DELAY_HOURS = 2;\n\n\tstruct Accusation {\n\t\taddress payable accuser;\n\t\tuint defendant_id;\n\n\t\t// The message\n\t\tuint32 topic;\n\t\tbytes32 prev_hash;\n\t\tbytes32 data_hash;\n\t\tuint64 timestamp;\n\t\tuint8 sig_v;\n\t\tbytes32 sig_r;\n\t\tbytes32 sig_s;\n\n\t\t// The proof that the subscription exists\n\t\t\n\t\tuint64 open_timestamp;\n\t\tbytes32 open_prev_hash;\n\t\tuint8   open_sig_v;\n\t\tbytes32 open_sig_r;\n\t\tbytes32 open_sig_s;\n\n\t\tbool valid;\n\t\tuint256 deadline;\n\t\tuint block_number;\n\t}\n\n\tstruct Broker {\n\t\taddress payable account;\n\t\tbytes4 ipAddr;\n\t\tuint16 port;\n\t}\n\n\tstruct Message {\n\t\tbytes data;\n\t\tuint64  timestamp;\n\t\tbytes32 prev_hash;\n\t\tuint block_number;\n\t}\n\n\tmapping (address => uint) balances;\n\t\n\tAccusation[] accusations;\n\tBroker[] brokers;\n\tmapping (address => mapping (uint32 => Message[])) messages;\n\n\tevent Transfer(address indexed _from, address indexed _to, uint256 _value);\n\n\tevent NewMessage(address indexed from, uint64 indexed timestamp, uint32 indexed topic, bytes32 prev_hash, bytes data);\n\n\tevent BrokerInvalid(uint broker_id);\n\n\tevent LogBytes32(bytes32 b);\n\tevent LogBytes(bytes b);\n\n\tconstructor () {\n\t\t\n\t}\n\n\n\tfunction registerBroker(bytes4 _ipAddr, uint16 _port) public payable\n\t{\n\t\trequire(msg.value >= REGISTER_FEE);\n\t\tfor (uint i = 0; i < brokers.length; i++) {\n\t\t\trequire(brokers[i].account != msg.sender);\n\t\t}\n\n\t\tbalances[msg.sender] += msg.value;\n\t\tbrokers.push(Broker({\n\t\t\taccount: payable(msg.sender), \n\t\t\tipAddr: _ipAddr, \n\t\t\tport: _port\n\t\t}));\n\t}\n\n\tfunction getBrokers() public view returns(Broker[] memory)\n\t{\n\t\treturn brokers;\n\t}\n\n\n    function VerifyMessage(bytes32 _hashedMessage, uint8 _v, bytes32 _r, bytes32 _s) \n\t\tpublic pure returns (address) \n\t{\n        bytes memory prefix = \"\\x19Ethereum Signed Message:\\n32\";\n        bytes32 prefixedHashMessage = keccak256(abi.encodePacked(prefix, _hashedMessage));\n        address signer = ecrecover(prefixedHashMessage, _v, _r, _s);\n        return signer;\n    }\n\n\tfunction sendMessage(\n\t\tuint32 topic, \n\t\tbytes memory data, \n\t\tuint64 timestamp, \n\t\tbytes32 prev_hash, \n\t\tuint8 sig_v, \n\t\tbytes32 sig_r, \n\t\tbytes32 sig_s\n\t) public pure returns (address)\n\t{\n\t\treturn VerifyMessage(\n\t\t\t\tmessageHash(timestamp,topic, hashData(data), prev_hash), \n\t\t\t\tsig_v, sig_r, sig_s);\n\t}\n\tfunction sendMessage(\n\t\tuint32 topic, \n\t\tbytes memory data, \n\t\tuint64 timestamp, \n\t\tbytes32 prev_hash\n\t) public \n\t{\n\t\tmessages[msg.sender][topic].push(Message({\n\t\t\tdata: data,\n\t\t\ttimestamp: timestamp,\n\t\t\tprev_hash: prev_hash,\n\t\t\tblock_number: block.number\n\t\t}));\n\t\temit NewMessage(msg.sender, timestamp, topic, prev_hash, data);\n\n\t}\n\n\tfunction messageHash(\n\t\tuint64 timestamp,\n\t \tuint32 topic, \n\t\tbytes32 data_hash, \n\t\tbytes32 prev_hash\n    ) public pure returns (bytes32) {\n        return keccak256(abi.encodePacked(timestamp, topic, data_hash, prev_hash));\n    }\n\tfunction hashData(\n        bytes memory data\n    ) public pure returns (bytes32) {\n        return keccak256(data);\n    }\n\n\tfunction hashOpeningSub(\n\t\tuint64 timestamp,\n\t\tuint32 topic,\n        address subscriber,\n\t\tbytes32 prev_hash\n    ) public pure returns (bytes32) {\n        return keccak256(abi.encodePacked(timestamp, topic, subscriber, prev_hash));\n    }\n\n\tfunction ackHash(\n\t\tuint8 sig_v,\n\t\tbytes32 sig_r,\n\t\tbytes32 sig_s\n    ) public pure returns (bytes32) {\n        return keccak256(abi.encodePacked(sig_v, sig_r, sig_s));\n    }\n\n\tfunction _accuse_check_message(\n\t\tuint defendant_id,\n\t \tuint32 topic, \n\t\tbytes32 prev_hash, \n\t\tbytes32 data_hash,\n\t\tuint64 timestamp, \n\t\tuint8 sig_v,\n\t\tbytes32[2] memory sig_rs\n\t\t\n\t\t) private view\n\t{\n\t\taddress defendant = brokers[defendant_id].account;\n\t\tbytes32 msgHash = messageHash(timestamp,topic,data_hash,prev_hash);\n\t\trequire(defendant == VerifyMessage(\n\t\t\tmsgHash, \n\t\t\tsig_v, sig_rs[0], sig_rs[1])\n\t\t);\n\t}\n\tfunction _accuse_check_openning(\n\t\tuint defendant_id,\n\t \tuint32 topic, \n\n\t\tuint64 open_timestamp,\n\t\tbytes32 open_prev_hash,\n\t\tuint8   open_sig_v,\n\t\tbytes32[2] memory open_sig_rs\n\t\t\n\t\t) private view\n\t{\n\t\taddress defendant = brokers[defendant_id].account;\n\t\trequire(defendant == VerifyMessage(\n\t\t\thashOpeningSub(open_timestamp, topic, msg.sender, open_prev_hash), \n\t\t\topen_sig_v, open_sig_rs[0], open_sig_rs[1])\n\t\t);\n\n\t}\n\n\tfunction accuse(\n\t\tuint defendant_id,\n\t \tuint32 topic, \n\t\tbytes32 prev_hash, \n\t\tbytes32 data_hash,\n\t\tuint64 timestamp, \n\t\tuint8 sig_v,\n\t\tbytes32[2] memory sig_rs,\n\t\t//bytes32 sig_s,\n\n\t\tuint64 open_timestamp,\n\t\tbytes32 open_prev_hash,\n\t\tuint8   open_sig_v,\n\t\tbytes32[2] memory open_sig_rs\n\t\t//bytes32 open_sig_s\n\t\t\n\t\t) public payable\n\t{\n\t\trequire(msg.value >= FINE);\n\t\trequire(block.timestamp >= timestamp + (MESSAGE_MAX_DELAY_HOURS * 1 hours));\n\n\t\t_accuse_check_message(defendant_id, topic,prev_hash, data_hash, timestamp, sig_v, sig_rs);\n\t\t_accuse_check_openning(defendant_id, topic, open_timestamp, open_prev_hash, open_sig_v, open_sig_rs);\n\n\t\tbalances[msg.sender] += msg.value;\n\n\t\taccusations.push(Accusation({\n\t\t\taccuser: payable(msg.sender), \n\t\t\tdefendant_id: defendant_id, \n\t\t\ttopic: topic, \n\t\t\ttimestamp: timestamp,\n\t\t\tdata_hash: data_hash, \n\t\t\tprev_hash: prev_hash, \n\t\t\tsig_v: sig_v,\n\t\t\tsig_r: sig_rs[0],\n\t\t\tsig_s: sig_rs[1],\n\t\t\tvalid: true,\n\t\t\tdeadline: block.timestamp + (ACCUSATION_DEADLINE_DAYS * 1 days),\n\t\t\tblock_number: block.number,\n\t\t\topen_timestamp: open_timestamp,\n\t\t\topen_prev_hash: open_prev_hash,\n\t\t\topen_sig_v: open_sig_v,\n\t\t\topen_sig_r: open_sig_rs[0],\n\t\t\topen_sig_s: open_sig_rs[1]\n\t\t}));\n\t}\n\n\tfunction defendClosedSubOnChain(\n\t\tuint32 accusation_id, \n\t\tuint32 message_id)\n\t\tpublic\n\t{\n\t\tuint32 topic = accusations[accusation_id].topic;\n\t\tuint defendant_id = accusations[accusation_id].defendant_id;\n\t\taddress defendant = brokers[defendant_id].account;\n\n\t\tuint64 timestamp = accusations[accusation_id].timestamp;\n\n\t\tbytes32 open_hash = hashOpeningSub(\n\t\t\taccusations[accusation_id].open_timestamp,\n\t\t\taccusations[accusation_id].topic,\n\t\t\taccusations[accusation_id].accuser,\n\t\t\taccusations[accusation_id].open_prev_hash);\n\n\t\t// m is a closing message\n\t\tMessage storage m = messages[defendant][topic][message_id]; \n\n\t\trequire(m.timestamp < timestamp);\t\t\n\t\trequire(m.block_number < accusations[accusation_id].block_number);\n\t\trequire(bytesToBytes32(m.data) == open_hash);\n\n\t\t_payeAccuserFine(accusation_id);\n\t\t\n\t}\n\tfunction defendClosedSubOffChain(\n\t\tuint32 accusation_id,\n\n\t\t// the closing message\n\t\tuint32 topic, \n\t\tuint64 timestamp,\n\t\tbytes memory data,\n\t\tbytes32 prevHash,\n\t\t\n\t\t// the signature of its hash by the accuser (i.e. the ack of the message)\n\t\tuint8 _v, \n\t\tbytes32 _r, \n\t\tbytes32 _s)\n\t\tpublic\n\t{\n\t\t\n\t\t// A message has been sent before the accusing message\n\t\t// and appears in the same subscription (same topic, same publisher)\n\t\trequire(topic == accusations[accusation_id].topic);\n\t\trequire(msg.sender == brokers[accusations[accusation_id].defendant_id].account);\n\t\trequire(timestamp < accusations[accusation_id].timestamp);\n\n\t\t//it has been akcnowledged\n\t\tbytes32 msgHash = messageHash(timestamp, topic, hashData(data), prevHash);\n\t\taddress accuser = accusations[accusation_id].accuser;\n\t\trequire(accuser == VerifyMessage(msgHash, _v, _r, _s));\n\n\t\t// and it is a closing message\n\t\tbytes32 open_hash = hashOpeningSub(\n\t\t\taccusations[accusation_id].open_timestamp,\n\t\t\taccusations[accusation_id].topic,\n\t\t\taccusations[accusation_id].accuser,\n\t\t\taccusations[accusation_id].open_prev_hash);\n\n\t\trequire(bytesToBytes32(data) == open_hash);\n\n\t\t_payeAccuserFine(accusation_id);\n\t\t\n\t}\n\tfunction bytesToBytes32(bytes memory b) private pure returns (bytes32) {\n\t\trequire(b.length == 32);\n\t\tbytes32 out;\n\t\tfor (uint i = 0; i < 32; i++) {\n\t\t\tout |= bytes32(b[i]) >> (i * 8);\n\t\t}\n\t\treturn out;\n\t}\n\n\tfunction defendOnChain(uint32 accusation_id, uint32 message_id)\n\t\tpublic\n\t{\n\t\tuint32 topic = accusations[accusation_id].topic;\n\t\tuint defendant_id = accusations[accusation_id].defendant_id;\n\t\taddress defendant = brokers[defendant_id].account;\n\n\t\tbytes32 missing_hash = accusations[accusation_id].prev_hash;\n\n\t\tMessage storage m = messages[defendant][topic][message_id]; \n\t\tbytes32 proof_hash = messageHash(m.timestamp, topic, hashData(m.data), m.prev_hash); \n\t\t\n\t\trequire(missing_hash == proof_hash);\n\t\trequire(accusations[accusation_id].block_number > m.block_number);\n\t\t\n\t\t_payeAccuserFine(accusation_id);\n\t\t\n\t}\n\tfunction defendOffChain(\n\t\tuint32 accusation_id, \n\n\t\t// the message\n\t\tuint32 topic, \n\t\tuint64 timestamp,\n\t\tbytes32 dataHash,\n\t\tbytes32 prevHash,\n\t\t\n\t\t// the signature of its hash by the accuser (i.e. the ack of the message)\n\t\tuint8 _v, \n\t\tbytes32 _r, \n\t\tbytes32 _s)\n\t\tpublic\n\t{\n\t\t// It is a message that has been sent after the accusing message\n\t\t// and that appear in the same subscription (same topic, same publisher)\n\t\trequire(topic == accusations[accusation_id].topic);\n\t\trequire(msg.sender == brokers[accusations[accusation_id].defendant_id].account);\n\t\trequire(timestamp > accusations[accusation_id].timestamp);\n\n\t\t// and it has been acknowledged\n\t\tbytes32 msgHash = messageHash(timestamp, topic, dataHash, prevHash);\n\t\taddress accuser = accusations[accusation_id].accuser;\n\t\trequire(accuser == VerifyMessage(msgHash, _v, _r, _s));\n\n\t\t\t\t\n\t\t_payeAccuserFine(accusation_id);\n\t}\n\n\tfunction redeemAccusationFine(uint accusation_id) private {\n\n\t\trequire(accusations[accusation_id].valid);\n\t\trequire(accusations[accusation_id].deadline < block.timestamp);\n\n\t\taddress accuser = accusations[accusation_id].accuser;\n\t\tuint defendant_id = accusations[accusation_id].defendant_id;\n\t\taddress defendant = brokers[defendant_id].account;\n\n\t\trequire(balances[defendant] >= FINE);\n\t\trequire(balances[accuser] >= FINE);\n\n\t\tbalances[defendant] -= FINE;\n\t\tbalances[accuser] -= FINE;\n\t\tpayable(accuser).transfer( 2 * FINE );\n\n\t\t// after the payment, the broker should still be able to paye a fine\n\t\tif(balances[defendant] < FINE) {\n\t\t\temit BrokerInvalid(defendant_id);\n\t\t}\n\t}\n\n\tfunction _payeAccuserFine(uint accusation_id) private {\n\n\t\taddress accuser = accusations[accusation_id].accuser;\n\t\taddress defendant = brokers[accusations[accusation_id].defendant_id].account;\n\t\taccusations[accusation_id].valid = false;\n\n\t\trequire(balances[accuser] >= FINE);\n\n\t\tbalances[accuser] -= FINE;\n\t\tbalances[defendant] += FINE;\n\t\n\t}\n\n\tfunction getBalance(address addr) public view returns(uint) {\n\t\treturn balances[addr];\n\t}\n\n}\n",
  "sourcePath": "/Users/quentinbramas/Projects/SUPRA/contracts/Supra.sol",
  "compiler": {
    "name": "solc",
    "version": "0.8.13+commit.abaa5c0e.Emscripten.clang"
  },
  "schemaVersion": "3.4.6",
  "updatedAt": "2022-04-19T11:49:04.615Z",
  "networkType": "ethereum",
  "devdoc": {
    "kind": "dev",
    "methods": {},
    "version": 1
  },
  "userdoc": {
    "kind": "user",
    "methods": {},
    "version": 1
  }
}