{
  "contractName": "Supra",
  "abi": [
    {
      "inputs": [],
      "stateMutability": "nonpayable",
      "type": "constructor"
    },
    {
      "anonymous": false,
      "inputs": [
        {
          "indexed": false,
          "internalType": "uint256",
          "name": "broker_id",
          "type": "uint256"
        }
      ],
      "name": "BrokerInvalid",
      "type": "event"
    },
    {
      "anonymous": false,
      "inputs": [
        {
          "indexed": false,
          "internalType": "bytes",
          "name": "b",
          "type": "bytes"
        }
      ],
      "name": "LogBytes",
      "type": "event"
    },
    {
      "anonymous": false,
      "inputs": [
        {
          "indexed": false,
          "internalType": "bytes32",
          "name": "b",
          "type": "bytes32"
        }
      ],
      "name": "LogBytes32",
      "type": "event"
    },
    {
      "anonymous": false,
      "inputs": [
        {
          "indexed": true,
          "internalType": "address",
          "name": "from",
          "type": "address"
        },
        {
          "indexed": true,
          "internalType": "uint64",
          "name": "timestamp",
          "type": "uint64"
        },
        {
          "indexed": true,
          "internalType": "uint32",
          "name": "topic",
          "type": "uint32"
        },
        {
          "indexed": false,
          "internalType": "bytes32",
          "name": "prev_hash",
          "type": "bytes32"
        },
        {
          "indexed": false,
          "internalType": "bytes",
          "name": "data",
          "type": "bytes"
        },
        {
          "indexed": false,
          "internalType": "uint256",
          "name": "message_id",
          "type": "uint256"
        }
      ],
      "name": "NewMessage",
      "type": "event"
    },
    {
      "anonymous": false,
      "inputs": [
        {
          "indexed": true,
          "internalType": "address",
          "name": "_from",
          "type": "address"
        },
        {
          "indexed": true,
          "internalType": "address",
          "name": "_to",
          "type": "address"
        },
        {
          "indexed": false,
          "internalType": "uint256",
          "name": "_value",
          "type": "uint256"
        }
      ],
      "name": "Transfer",
      "type": "event"
    },
    {
      "inputs": [
        {
          "internalType": "bytes4",
          "name": "_ipAddr",
          "type": "bytes4"
        },
        {
          "internalType": "uint16",
          "name": "_port",
          "type": "uint16"
        }
      ],
      "name": "registerBroker",
      "outputs": [],
      "stateMutability": "payable",
      "type": "function",
      "payable": true
    },
    {
      "inputs": [],
      "name": "getBrokers",
      "outputs": [
        {
          "components": [
            {
              "internalType": "address payable",
              "name": "account",
              "type": "address"
            },
            {
              "internalType": "bytes4",
              "name": "ipAddr",
              "type": "bytes4"
            },
            {
              "internalType": "uint16",
              "name": "port",
              "type": "uint16"
            }
          ],
          "internalType": "struct Supra.Broker[]",
          "name": "",
          "type": "tuple[]"
        }
      ],
      "stateMutability": "view",
      "type": "function",
      "constant": true
    },
    {
      "inputs": [
        {
          "internalType": "bytes32",
          "name": "_hashedMessage",
          "type": "bytes32"
        },
        {
          "internalType": "uint8",
          "name": "_v",
          "type": "uint8"
        },
        {
          "internalType": "bytes32",
          "name": "_r",
          "type": "bytes32"
        },
        {
          "internalType": "bytes32",
          "name": "_s",
          "type": "bytes32"
        }
      ],
      "name": "VerifyMessage",
      "outputs": [
        {
          "internalType": "address",
          "name": "",
          "type": "address"
        }
      ],
      "stateMutability": "pure",
      "type": "function",
      "constant": true
    },
    {
      "inputs": [
        {
          "internalType": "uint32",
          "name": "topic",
          "type": "uint32"
        },
        {
          "internalType": "bytes",
          "name": "data",
          "type": "bytes"
        },
        {
          "internalType": "uint64",
          "name": "timestamp",
          "type": "uint64"
        },
        {
          "internalType": "bytes32",
          "name": "prev_hash",
          "type": "bytes32"
        }
      ],
      "name": "sendMessage",
      "outputs": [],
      "stateMutability": "nonpayable",
      "type": "function"
    },
    {
      "inputs": [
        {
          "internalType": "uint32",
          "name": "topic",
          "type": "uint32"
        },
        {
          "internalType": "bytes",
          "name": "data",
          "type": "bytes"
        },
        {
          "internalType": "uint64",
          "name": "timestamp",
          "type": "uint64"
        },
        {
          "internalType": "bytes32",
          "name": "prev_hash",
          "type": "bytes32"
        },
        {
          "internalType": "uint8",
          "name": "sig_v",
          "type": "uint8"
        },
        {
          "internalType": "bytes32",
          "name": "sig_r",
          "type": "bytes32"
        },
        {
          "internalType": "bytes32",
          "name": "sig_s",
          "type": "bytes32"
        }
      ],
      "name": "sendMessage",
      "outputs": [
        {
          "internalType": "address",
          "name": "",
          "type": "address"
        }
      ],
      "stateMutability": "pure",
      "type": "function",
      "constant": true
    },
    {
      "inputs": [
        {
          "internalType": "uint64",
          "name": "timestamp",
          "type": "uint64"
        },
        {
          "internalType": "uint32",
          "name": "topic",
          "type": "uint32"
        },
        {
          "internalType": "bytes32",
          "name": "data_hash",
          "type": "bytes32"
        },
        {
          "internalType": "bytes32",
          "name": "prev_hash",
          "type": "bytes32"
        }
      ],
      "name": "messageHash",
      "outputs": [
        {
          "internalType": "bytes32",
          "name": "",
          "type": "bytes32"
        }
      ],
      "stateMutability": "pure",
      "type": "function",
      "constant": true
    },
    {
      "inputs": [
        {
          "internalType": "bytes",
          "name": "data",
          "type": "bytes"
        }
      ],
      "name": "hashData",
      "outputs": [
        {
          "internalType": "bytes32",
          "name": "",
          "type": "bytes32"
        }
      ],
      "stateMutability": "pure",
      "type": "function",
      "constant": true
    },
    {
      "inputs": [
        {
          "internalType": "uint64",
          "name": "timestamp",
          "type": "uint64"
        },
        {
          "internalType": "uint32",
          "name": "topic",
          "type": "uint32"
        },
        {
          "internalType": "address",
          "name": "subscriber",
          "type": "address"
        },
        {
          "internalType": "bytes32",
          "name": "prev_hash",
          "type": "bytes32"
        }
      ],
      "name": "hashOpeningSub",
      "outputs": [
        {
          "internalType": "bytes32",
          "name": "",
          "type": "bytes32"
        }
      ],
      "stateMutability": "pure",
      "type": "function",
      "constant": true
    },
    {
      "inputs": [
        {
          "internalType": "uint8",
          "name": "sig_v",
          "type": "uint8"
        },
        {
          "internalType": "bytes32",
          "name": "sig_r",
          "type": "bytes32"
        },
        {
          "internalType": "bytes32",
          "name": "sig_s",
          "type": "bytes32"
        }
      ],
      "name": "ackHash",
      "outputs": [
        {
          "internalType": "bytes32",
          "name": "",
          "type": "bytes32"
        }
      ],
      "stateMutability": "pure",
      "type": "function",
      "constant": true
    },
    {
      "inputs": [
        {
          "internalType": "uint256",
          "name": "defendant_id",
          "type": "uint256"
        },
        {
          "internalType": "uint32",
          "name": "topic",
          "type": "uint32"
        },
        {
          "internalType": "bytes32",
          "name": "prev_hash",
          "type": "bytes32"
        },
        {
          "internalType": "bytes32",
          "name": "data_hash",
          "type": "bytes32"
        },
        {
          "internalType": "uint64",
          "name": "timestamp",
          "type": "uint64"
        },
        {
          "internalType": "uint8",
          "name": "sig_v",
          "type": "uint8"
        },
        {
          "internalType": "bytes32[2]",
          "name": "sig_rs",
          "type": "bytes32[2]"
        },
        {
          "internalType": "uint64",
          "name": "open_timestamp",
          "type": "uint64"
        },
        {
          "internalType": "bytes32",
          "name": "open_prev_hash",
          "type": "bytes32"
        },
        {
          "internalType": "uint8",
          "name": "open_sig_v",
          "type": "uint8"
        },
        {
          "internalType": "bytes32[2]",
          "name": "open_sig_rs",
          "type": "bytes32[2]"
        }
      ],
      "name": "accuse",
      "outputs": [],
      "stateMutability": "payable",
      "type": "function",
      "payable": true
    },
    {
      "inputs": [
        {
          "internalType": "uint32",
          "name": "accusation_id",
          "type": "uint32"
        },
        {
          "internalType": "uint32",
          "name": "message_id",
          "type": "uint32"
        }
      ],
      "name": "defendClosedSubOnChain",
      "outputs": [],
      "stateMutability": "nonpayable",
      "type": "function"
    },
    {
      "inputs": [
        {
          "internalType": "uint32",
          "name": "accusation_id",
          "type": "uint32"
        },
        {
          "internalType": "uint32",
          "name": "topic",
          "type": "uint32"
        },
        {
          "internalType": "uint64",
          "name": "timestamp",
          "type": "uint64"
        },
        {
          "internalType": "bytes",
          "name": "data",
          "type": "bytes"
        },
        {
          "internalType": "bytes32",
          "name": "prevHash",
          "type": "bytes32"
        },
        {
          "internalType": "uint8",
          "name": "_v",
          "type": "uint8"
        },
        {
          "internalType": "bytes32",
          "name": "_r",
          "type": "bytes32"
        },
        {
          "internalType": "bytes32",
          "name": "_s",
          "type": "bytes32"
        }
      ],
      "name": "defendClosedSubOffChain",
      "outputs": [],
      "stateMutability": "nonpayable",
      "type": "function"
    },
    {
      "inputs": [
        {
          "internalType": "uint32",
          "name": "accusation_id",
          "type": "uint32"
        },
        {
          "internalType": "uint32",
          "name": "message_id",
          "type": "uint32"
        }
      ],
      "name": "defendOnChain",
      "outputs": [],
      "stateMutability": "nonpayable",
      "type": "function"
    },
    {
      "inputs": [
        {
          "internalType": "uint32",
          "name": "accusation_id",
          "type": "uint32"
        },
        {
          "internalType": "uint32",
          "name": "topic",
          "type": "uint32"
        },
        {
          "internalType": "uint64",
          "name": "timestamp",
          "type": "uint64"
        },
        {
          "internalType": "bytes32",
          "name": "dataHash",
          "type": "bytes32"
        },
        {
          "internalType": "bytes32",
          "name": "prevHash",
          "type": "bytes32"
        },
        {
          "internalType": "uint8",
          "name": "_v",
          "type": "uint8"
        },
        {
          "internalType": "bytes32",
          "name": "_r",
          "type": "bytes32"
        },
        {
          "internalType": "bytes32",
          "name": "_s",
          "type": "bytes32"
        }
      ],
      "name": "defendOffChain",
      "outputs": [],
      "stateMutability": "nonpayable",
      "type": "function"
    },
    {
      "inputs": [
        {
          "internalType": "address",
          "name": "addr",
          "type": "address"
        }
      ],
      "name": "getBalance",
      "outputs": [
        {
          "internalType": "uint256",
          "name": "",
          "type": "uint256"
        }
      ],
      "stateMutability": "view",
      "type": "function",
      "constant": true
    }
  ],
  "bytecode": "0x608060405234801561001057600080fd5b50613080806100206000396000f3fe6080604052600436106100e85760003560e01c8063659934c11161008a5780638e001654116100595780638e001654146102e6578063de9c6c0414610311578063e66ef92d1461034e578063f8b2cb4f1461038b576100e8565b8063659934c114610227578063746bf4dd14610264578063805cf37c146102a1578063823ddb7f146102ca576100e8565b806333dc0e41116100c657806333dc0e411461015b5780634a500a6c14610184578063521df64e146101c157806353e343b3146101ea576100e8565b80630a905cf8146100ed5780630b212e2814610116578063305c20731461013f575b600080fd5b3480156100f957600080fd5b50610114600480360381019061010f91906120dd565b6103c8565b005b34801561012257600080fd5b5061013d60048036038101906101389190612199565b6105af565b005b610159600480360381019061015491906122fd565b6108e0565b005b34801561016757600080fd5b50610182600480360381019061017d919061233d565b610afa565b005b34801561019057600080fd5b506101ab60048036038101906101a6919061237d565b610d86565b6040516101b891906123df565b60405180910390f35b3480156101cd57600080fd5b506101e860048036038101906101e391906123fa565b610dbc565b005b3480156101f657600080fd5b50610211600480360381019061020c91906124b0565b610fd0565b60405161021e91906123df565b60405180910390f35b34801561023357600080fd5b5061024e60048036038101906102499190612517565b611009565b60405161025b91906125bf565b60405180910390f35b34801561027057600080fd5b5061028b600480360381019061028691906125da565b6110d2565b60405161029891906125bf565b60405180910390f35b3480156102ad57600080fd5b506102c860048036038101906102c3919061233d565b611100565b005b6102e460048036038101906102df9190612784565b6114ac565b005b3480156102f257600080fd5b506102fb611854565b60405161030891906129a9565b60405180910390f35b34801561031d57600080fd5b50610338600480360381019061033391906129f7565b61197a565b60405161034591906123df565b60405180910390f35b34801561035a57600080fd5b5061037560048036038101906103709190612a5e565b6119b3565b60405161038291906123df565b60405180910390f35b34801561039757600080fd5b506103b260048036038101906103ad9190612aa7565b6119c4565b6040516103bf9190612ae3565b60405180910390f35b600360003373ffffffffffffffffffffffffffffffffffffffff1673ffffffffffffffffffffffffffffffffffffffff16815260200190815260200160002060008563ffffffff1663ffffffff16815260200190815260200160002060405180608001604052808581526020018467ffffffffffffffff1681526020018381526020014381525090806001815401808255809150506001900390600052602060002090600402016000909190919091506000820151816000019080519060200190610494929190611e2e565b5060208201518160010160006101000a81548167ffffffffffffffff021916908367ffffffffffffffff160217905550604082015181600201556060820151816003015550508363ffffffff168267ffffffffffffffff163373ffffffffffffffffffffffffffffffffffffffff167f4b7afe817771b741772a611d8b2d7f25719a08a69d11e0a6640a412adc61481a84876001600360003373ffffffffffffffffffffffffffffffffffffffff1673ffffffffffffffffffffffffffffffffffffffff16815260200190815260200160002060008c63ffffffff1663ffffffff168152602001908152602001600020805490506105929190612b2d565b6040516105a193929190612be9565b60405180910390a450505050565b60018863ffffffff16815481106105c9576105c8612c27565b5b906000526020600020906010020160020160009054906101000a900463ffffffff1663ffffffff168763ffffffff161461060257600080fd5b600260018963ffffffff168154811061061e5761061d612c27565b5b9060005260206000209060100201600101548154811061064157610640612c27565b5b9060005260206000200160000160009054906101000a900473ffffffffffffffffffffffffffffffffffffffff1673ffffffffffffffffffffffffffffffffffffffff163373ffffffffffffffffffffffffffffffffffffffff16146106a657600080fd5b60018863ffffffff16815481106106c0576106bf612c27565b5b906000526020600020906010020160050160009054906101000a900467ffffffffffffffff1667ffffffffffffffff168667ffffffffffffffff161061070557600080fd5b600061071b8789610715896119b3565b88610fd0565b9050600060018a63ffffffff168154811061073957610738612c27565b5b906000526020600020906010020160000160009054906101000a900473ffffffffffffffffffffffffffffffffffffffff16905061077982868686611009565b73ffffffffffffffffffffffffffffffffffffffff168173ffffffffffffffffffffffffffffffffffffffff16146107b057600080fd5b60006108ae60018c63ffffffff16815481106107cf576107ce612c27565b5b906000526020600020906010020160080160009054906101000a900467ffffffffffffffff1660018d63ffffffff168154811061080f5761080e612c27565b5b906000526020600020906010020160020160009054906101000a900463ffffffff1660018e63ffffffff168154811061084b5761084a612c27565b5b906000526020600020906010020160000160009054906101000a900473ffffffffffffffffffffffffffffffffffffffff1660018f63ffffffff168154811061089757610896612c27565b5b90600052602060002090601002016009015461197a565b9050806108ba89611a0c565b146108c457600080fd5b6108d38b63ffffffff16611a9d565b5050505050505050505050565b600a806108ed9190612c56565b3410156108f957600080fd5b60005b600280549050811015610995573373ffffffffffffffffffffffffffffffffffffffff166002828154811061093457610933612c27565b5b9060005260206000200160000160009054906101000a900473ffffffffffffffffffffffffffffffffffffffff1673ffffffffffffffffffffffffffffffffffffffff160361098257600080fd5b808061098d90612cb0565b9150506108fc565b50346000803373ffffffffffffffffffffffffffffffffffffffff1673ffffffffffffffffffffffffffffffffffffffff16815260200190815260200160002060008282546109e49190612cf8565b92505081905550600260405180606001604052803373ffffffffffffffffffffffffffffffffffffffff168152602001847bffffffffffffffffffffffffffffffffffffffffffffffffffffffff191681526020018361ffff168152509080600181540180825580915050600190039060005260206000200160009091909190915060008201518160000160006101000a81548173ffffffffffffffffffffffffffffffffffffffff021916908373ffffffffffffffffffffffffffffffffffffffff16021790555060208201518160000160146101000a81548163ffffffff021916908360e01c021790555060408201518160000160186101000a81548161ffff021916908361ffff16021790555050505050565b600060018363ffffffff1681548110610b1657610b15612c27565b5b906000526020600020906010020160020160009054906101000a900463ffffffff169050600060018463ffffffff1681548110610b5657610b55612c27565b5b9060005260206000209060100201600101549050600060028281548110610b8057610b7f612c27565b5b9060005260206000200160000160009054906101000a900473ffffffffffffffffffffffffffffffffffffffff169050600060018663ffffffff1681548110610bcc57610bcb612c27565b5b90600052602060002090601002016003015490506000600360008473ffffffffffffffffffffffffffffffffffffffff1673ffffffffffffffffffffffffffffffffffffffff16815260200190815260200160002060008663ffffffff1663ffffffff1681526020019081526020016000208663ffffffff1681548110610c5657610c55612c27565b5b906000526020600020906004020190506000610d248260010160009054906101000a900467ffffffffffffffff1687610d1a856000018054610c9790612d7d565b80601f0160208091040260200160405190810160405280929190818152602001828054610cc390612d7d565b8015610d105780601f10610ce557610100808354040283529160200191610d10565b820191906000526020600020905b815481529060010190602001808311610cf357829003601f168201915b50505050506119b3565b8560020154610fd0565b9050808314610d3257600080fd5b816003015460018963ffffffff1681548110610d5157610d50612c27565b5b9060005260206000209060100201600f015411610d6d57600080fd5b610d7c8863ffffffff16611a9d565b5050505050505050565b6000838383604051602001610d9d93929190612e05565b6040516020818303038152906040528051906020012090509392505050565b60018863ffffffff1681548110610dd657610dd5612c27565b5b906000526020600020906010020160020160009054906101000a900463ffffffff1663ffffffff168763ffffffff1614610e0f57600080fd5b600260018963ffffffff1681548110610e2b57610e2a612c27565b5b90600052602060002090601002016001015481548110610e4e57610e4d612c27565b5b9060005260206000200160000160009054906101000a900473ffffffffffffffffffffffffffffffffffffffff1673ffffffffffffffffffffffffffffffffffffffff163373ffffffffffffffffffffffffffffffffffffffff1614610eb357600080fd5b60018863ffffffff1681548110610ecd57610ecc612c27565b5b906000526020600020906010020160050160009054906101000a900467ffffffffffffffff1667ffffffffffffffff168667ffffffffffffffff1611610f1257600080fd5b6000610f2087898888610fd0565b9050600060018a63ffffffff1681548110610f3e57610f3d612c27565b5b906000526020600020906010020160000160009054906101000a900473ffffffffffffffffffffffffffffffffffffffff169050610f7e82868686611009565b73ffffffffffffffffffffffffffffffffffffffff168173ffffffffffffffffffffffffffffffffffffffff1614610fb557600080fd5b610fc48a63ffffffff16611a9d565b50505050505050505050565b600084848484604051602001610fe99493929190612eae565b604051602081830303815290604052805190602001209050949350505050565b6000806040518060400160405280601c81526020017f19457468657265756d205369676e6564204d6573736167653a0a333200000000815250905060008187604051602001611059929190612f38565b6040516020818303038152906040528051906020012090506000600182888888604051600081526020016040526040516110969493929190612f6f565b6020604051602081039080840390855afa1580156110b8573d6000803e3d6000fd5b505050602060405103519050809350505050949350505050565b60006110f36110eb878a6110e58b6119b3565b89610fd0565b858585611009565b9050979650505050505050565b600060018363ffffffff168154811061111c5761111b612c27565b5b906000526020600020906010020160020160009054906101000a900463ffffffff169050600060018463ffffffff168154811061115c5761115b612c27565b5b906000526020600020906010020160010154905060006002828154811061118657611185612c27565b5b9060005260206000200160000160009054906101000a900473ffffffffffffffffffffffffffffffffffffffff169050600060018663ffffffff16815481106111d2576111d1612c27565b5b906000526020600020906010020160050160009054906101000a900467ffffffffffffffff16905060006112f860018863ffffffff168154811061121957611218612c27565b5b906000526020600020906010020160080160009054906101000a900467ffffffffffffffff1660018963ffffffff168154811061125957611258612c27565b5b906000526020600020906010020160020160009054906101000a900463ffffffff1660018a63ffffffff168154811061129557611294612c27565b5b906000526020600020906010020160000160009054906101000a900473ffffffffffffffffffffffffffffffffffffffff1660018b63ffffffff16815481106112e1576112e0612c27565b5b90600052602060002090601002016009015461197a565b90506000600360008573ffffffffffffffffffffffffffffffffffffffff1673ffffffffffffffffffffffffffffffffffffffff16815260200190815260200160002060008763ffffffff1663ffffffff1681526020019081526020016000208763ffffffff16815481106113705761136f612c27565b5b906000526020600020906004020190508267ffffffffffffffff168160010160009054906101000a900467ffffffffffffffff1667ffffffffffffffff16106113b857600080fd5b60018863ffffffff16815481106113d2576113d1612c27565b5b9060005260206000209060100201600f01548160030154106113f357600080fd5b8161148982600001805461140690612d7d565b80601f016020809104026020016040519081016040528092919081815260200182805461143290612d7d565b801561147f5780601f106114545761010080835404028352916020019161147f565b820191906000526020600020905b81548152906001019060200180831161146257829003601f168201915b5050505050611a0c565b1461149357600080fd5b6114a28863ffffffff16611a9d565b5050505050505050565b600a3410156114ba57600080fd5b610e1060026114c99190612c56565b8767ffffffffffffffff166114de9190612cf8565b4210156114ea57600080fd5b6114f98b8b8b8b8b8b8b611c8d565b6115078b8b86868686611d61565b346000803373ffffffffffffffffffffffffffffffffffffffff1673ffffffffffffffffffffffffffffffffffffffff16815260200190815260200160002060008282546115559190612cf8565b9250508190555060016040518061022001604052803373ffffffffffffffffffffffffffffffffffffffff1681526020018d81526020018c63ffffffff1681526020018b81526020018a81526020018967ffffffffffffffff1681526020018860ff168152602001876000600281106115d1576115d0612c27565b5b60200201518152602001876001600281106115ef576115ee612c27565b5b602002015181526020018667ffffffffffffffff1681526020018581526020018460ff1681526020018360006002811061162c5761162b612c27565b5b602002015181526020018360016002811061164a57611649612c27565b5b6020020151815260200160011515815260200162015180600361166d9190612c56565b426116789190612cf8565b815260200143815250908060018154018082558091505060019003906000526020600020906010020160009091909190915060008201518160000160006101000a81548173ffffffffffffffffffffffffffffffffffffffff021916908373ffffffffffffffffffffffffffffffffffffffff1602179055506020820151816001015560408201518160020160006101000a81548163ffffffff021916908363ffffffff160217905550606082015181600301556080820151816004015560a08201518160050160006101000a81548167ffffffffffffffff021916908367ffffffffffffffff16021790555060c08201518160050160086101000a81548160ff021916908360ff16021790555060e0820151816006015561010082015181600701556101208201518160080160006101000a81548167ffffffffffffffff021916908367ffffffffffffffff160217905550610140820151816009015561016082015181600a0160006101000a81548160ff021916908360ff16021790555061018082015181600b01556101a082015181600c01556101c082015181600d0160006101000a81548160ff0219169083151502179055506101e082015181600e015561020082015181600f015550505050505050505050505050565b60606002805480602002602001604051908101604052809291908181526020016000905b82821015611971578382906000526020600020016040518060600160405290816000820160009054906101000a900473ffffffffffffffffffffffffffffffffffffffff1673ffffffffffffffffffffffffffffffffffffffff1673ffffffffffffffffffffffffffffffffffffffff1681526020016000820160149054906101000a900460e01b7bffffffffffffffffffffffffffffffffffffffffffffffffffffffff19167bffffffffffffffffffffffffffffffffffffffffffffffffffffffff191681526020016000820160189054906101000a900461ffff1661ffff1661ffff168152505081526020019060010190611878565b50505050905090565b6000848484846040516020016119939493929190612ffc565b604051602081830303815290604052805190602001209050949350505050565b600081805190602001209050919050565b60008060008373ffffffffffffffffffffffffffffffffffffffff1673ffffffffffffffffffffffffffffffffffffffff168152602001908152602001600020549050919050565b60006020825114611a1c57600080fd5b600080600090505b6020811015611a9357600881611a3a9190612c56565b848281518110611a4d57611a4c612c27565b5b602001015160f81c60f81b7effffffffffffffffffffffffffffffffffffffffffffffffffffffffffffff1916901c821791508080611a8b90612cb0565b915050611a24565b5080915050919050565b600060018281548110611ab357611ab2612c27565b5b906000526020600020906010020160000160009054906101000a900473ffffffffffffffffffffffffffffffffffffffff1690506000600260018481548110611aff57611afe612c27565b5b90600052602060002090601002016001015481548110611b2257611b21612c27565b5b9060005260206000200160000160009054906101000a900473ffffffffffffffffffffffffffffffffffffffff169050600060018481548110611b6857611b67612c27565b5b9060005260206000209060100201600d0160006101000a81548160ff021916908315150217905550600a6000808473ffffffffffffffffffffffffffffffffffffffff1673ffffffffffffffffffffffffffffffffffffffff168152602001908152602001600020541015611bdc57600080fd5b600a6000808473ffffffffffffffffffffffffffffffffffffffff1673ffffffffffffffffffffffffffffffffffffffff1681526020019081526020016000206000828254611c2b9190612b2d565b92505081905550600a6000808373ffffffffffffffffffffffffffffffffffffffff1673ffffffffffffffffffffffffffffffffffffffff1681526020019081526020016000206000828254611c819190612cf8565b92505081905550505050565b600060028881548110611ca357611ca2612c27565b5b9060005260206000200160000160009054906101000a900473ffffffffffffffffffffffffffffffffffffffff1690506000611ce18589888a610fd0565b9050611d1f818585600060028110611cfc57611cfb612c27565b5b602002015186600160028110611d1557611d14612c27565b5b6020020151611009565b73ffffffffffffffffffffffffffffffffffffffff168273ffffffffffffffffffffffffffffffffffffffff1614611d5657600080fd5b505050505050505050565b600060028781548110611d7757611d76612c27565b5b9060005260206000200160000160009054906101000a900473ffffffffffffffffffffffffffffffffffffffff169050611dee611db68688338861197a565b8484600060028110611dcb57611dca612c27565b5b602002015185600160028110611de457611de3612c27565b5b6020020151611009565b73ffffffffffffffffffffffffffffffffffffffff168173ffffffffffffffffffffffffffffffffffffffff1614611e2557600080fd5b50505050505050565b828054611e3a90612d7d565b90600052602060002090601f016020900481019282611e5c5760008555611ea3565b82601f10611e7557805160ff1916838001178555611ea3565b82800160010185558215611ea3579182015b82811115611ea2578251825591602001919060010190611e87565b5b509050611eb09190611eb4565b5090565b5b80821115611ecd576000816000905550600101611eb5565b5090565b6000604051905090565b600080fd5b600080fd5b600063ffffffff82169050919050565b611efe81611ee5565b8114611f0957600080fd5b50565b600081359050611f1b81611ef5565b92915050565b600080fd5b600080fd5b6000601f19601f8301169050919050565b7f4e487b7100000000000000000000000000000000000000000000000000000000600052604160045260246000fd5b611f7482611f2b565b810181811067ffffffffffffffff82111715611f9357611f92611f3c565b5b80604052505050565b6000611fa6611ed1565b9050611fb28282611f6b565b919050565b600067ffffffffffffffff821115611fd257611fd1611f3c565b5b611fdb82611f2b565b9050602081019050919050565b82818337600083830152505050565b600061200a61200584611fb7565b611f9c565b90508281526020810184848401111561202657612025611f26565b5b612031848285611fe8565b509392505050565b600082601f83011261204e5761204d611f21565b5b813561205e848260208601611ff7565b91505092915050565b600067ffffffffffffffff82169050919050565b61208481612067565b811461208f57600080fd5b50565b6000813590506120a18161207b565b92915050565b6000819050919050565b6120ba816120a7565b81146120c557600080fd5b50565b6000813590506120d7816120b1565b92915050565b600080600080608085870312156120f7576120f6611edb565b5b600061210587828801611f0c565b945050602085013567ffffffffffffffff81111561212657612125611ee0565b5b61213287828801612039565b935050604061214387828801612092565b9250506060612154878288016120c8565b91505092959194509250565b600060ff82169050919050565b61217681612160565b811461218157600080fd5b50565b6000813590506121938161216d565b92915050565b600080600080600080600080610100898b0312156121ba576121b9611edb565b5b60006121c88b828c01611f0c565b98505060206121d98b828c01611f0c565b97505060406121ea8b828c01612092565b965050606089013567ffffffffffffffff81111561220b5761220a611ee0565b5b6122178b828c01612039565b95505060806122288b828c016120c8565b94505060a06122398b828c01612184565b93505060c061224a8b828c016120c8565b92505060e061225b8b828c016120c8565b9150509295985092959890939650565b60007fffffffff0000000000000000000000000000000000000000000000000000000082169050919050565b6122a08161226b565b81146122ab57600080fd5b50565b6000813590506122bd81612297565b92915050565b600061ffff82169050919050565b6122da816122c3565b81146122e557600080fd5b50565b6000813590506122f7816122d1565b92915050565b6000806040838503121561231457612313611edb565b5b6000612322858286016122ae565b9250506020612333858286016122e8565b9150509250929050565b6000806040838503121561235457612353611edb565b5b600061236285828601611f0c565b925050602061237385828601611f0c565b9150509250929050565b60008060006060848603121561239657612395611edb565b5b60006123a486828701612184565b93505060206123b5868287016120c8565b92505060406123c6868287016120c8565b9150509250925092565b6123d9816120a7565b82525050565b60006020820190506123f460008301846123d0565b92915050565b600080600080600080600080610100898b03121561241b5761241a611edb565b5b60006124298b828c01611f0c565b985050602061243a8b828c01611f0c565b975050604061244b8b828c01612092565b965050606061245c8b828c016120c8565b955050608061246d8b828c016120c8565b94505060a061247e8b828c01612184565b93505060c061248f8b828c016120c8565b92505060e06124a08b828c016120c8565b9150509295985092959890939650565b600080600080608085870312156124ca576124c9611edb565b5b60006124d887828801612092565b94505060206124e987828801611f0c565b93505060406124fa878288016120c8565b925050606061250b878288016120c8565b91505092959194509250565b6000806000806080858703121561253157612530611edb565b5b600061253f878288016120c8565b945050602061255087828801612184565b9350506040612561878288016120c8565b9250506060612572878288016120c8565b91505092959194509250565b600073ffffffffffffffffffffffffffffffffffffffff82169050919050565b60006125a98261257e565b9050919050565b6125b98161259e565b82525050565b60006020820190506125d460008301846125b0565b92915050565b600080600080600080600060e0888a0312156125f9576125f8611edb565b5b60006126078a828b01611f0c565b975050602088013567ffffffffffffffff81111561262857612627611ee0565b5b6126348a828b01612039565b96505060406126458a828b01612092565b95505060606126568a828b016120c8565b94505060806126678a828b01612184565b93505060a06126788a828b016120c8565b92505060c06126898a828b016120c8565b91505092959891949750929550565b6000819050919050565b6126ab81612698565b81146126b657600080fd5b50565b6000813590506126c8816126a2565b92915050565b600067ffffffffffffffff8211156126e9576126e8611f3c565b5b602082029050919050565b600080fd5b600061270c612707846126ce565b611f9c565b90508060208402830185811115612726576127256126f4565b5b835b8181101561274f578061273b88826120c8565b845260208401935050602081019050612728565b5050509392505050565b600082601f83011261276e5761276d611f21565b5b600261277b8482856126f9565b91505092915050565b60008060008060008060008060008060006101a08c8e0312156127aa576127a9611edb565b5b60006127b88e828f016126b9565b9b505060206127c98e828f01611f0c565b9a505060406127da8e828f016120c8565b99505060606127eb8e828f016120c8565b98505060806127fc8e828f01612092565b97505060a061280d8e828f01612184565b96505060c061281e8e828f01612759565b9550506101006128308e828f01612092565b9450506101206128428e828f016120c8565b9350506101406128548e828f01612184565b9250506101606128668e828f01612759565b9150509295989b509295989b9093969950565b600081519050919050565b600082825260208201905092915050565b6000819050602082019050919050565b60006128b08261257e565b9050919050565b6128c0816128a5565b82525050565b6128cf8161226b565b82525050565b6128de816122c3565b82525050565b6060820160008201516128fa60008501826128b7565b50602082015161290d60208501826128c6565b50604082015161292060408501826128d5565b50505050565b600061293283836128e4565b60608301905092915050565b6000602082019050919050565b600061295682612879565b6129608185612884565b935061296b83612895565b8060005b8381101561299c5781516129838882612926565b975061298e8361293e565b92505060018101905061296f565b5085935050505092915050565b600060208201905081810360008301526129c3818461294b565b905092915050565b6129d48161259e565b81146129df57600080fd5b50565b6000813590506129f1816129cb565b92915050565b60008060008060808587031215612a1157612a10611edb565b5b6000612a1f87828801612092565b9450506020612a3087828801611f0c565b9350506040612a41878288016129e2565b9250506060612a52878288016120c8565b91505092959194509250565b600060208284031215612a7457612a73611edb565b5b600082013567ffffffffffffffff811115612a9257612a91611ee0565b5b612a9e84828501612039565b91505092915050565b600060208284031215612abd57612abc611edb565b5b6000612acb848285016129e2565b91505092915050565b612add81612698565b82525050565b6000602082019050612af86000830184612ad4565b92915050565b7f4e487b7100000000000000000000000000000000000000000000000000000000600052601160045260246000fd5b6000612b3882612698565b9150612b4383612698565b925082821015612b5657612b55612afe565b5b828203905092915050565b600081519050919050565b600082825260208201905092915050565b60005b83811015612b9b578082015181840152602081019050612b80565b83811115612baa576000848401525b50505050565b6000612bbb82612b61565b612bc58185612b6c565b9350612bd5818560208601612b7d565b612bde81611f2b565b840191505092915050565b6000606082019050612bfe60008301866123d0565b8181036020830152612c108185612bb0565b9050612c1f6040830184612ad4565b949350505050565b7f4e487b7100000000000000000000000000000000000000000000000000000000600052603260045260246000fd5b6000612c6182612698565b9150612c6c83612698565b9250817fffffffffffffffffffffffffffffffffffffffffffffffffffffffffffffffff0483118215151615612ca557612ca4612afe565b5b828202905092915050565b6000612cbb82612698565b91507fffffffffffffffffffffffffffffffffffffffffffffffffffffffffffffffff8203612ced57612cec612afe565b5b600182019050919050565b6000612d0382612698565b9150612d0e83612698565b9250827fffffffffffffffffffffffffffffffffffffffffffffffffffffffffffffffff03821115612d4357612d42612afe565b5b828201905092915050565b7f4e487b7100000000000000000000000000000000000000000000000000000000600052602260045260246000fd5b60006002820490506001821680612d9557607f821691505b602082108103612da857612da7612d4e565b5b50919050565b60008160f81b9050919050565b6000612dc682612dae565b9050919050565b612dde612dd982612160565b612dbb565b82525050565b6000819050919050565b612dff612dfa826120a7565b612de4565b82525050565b6000612e118286612dcd565b600182019150612e218285612dee565b602082019150612e318284612dee565b602082019150819050949350505050565b60008160c01b9050919050565b6000612e5a82612e42565b9050919050565b612e72612e6d82612067565b612e4f565b82525050565b60008160e01b9050919050565b6000612e9082612e78565b9050919050565b612ea8612ea382611ee5565b612e85565b82525050565b6000612eba8287612e61565b600882019150612eca8286612e97565b600482019150612eda8285612dee565b602082019150612eea8284612dee565b60208201915081905095945050505050565b600081905092915050565b6000612f1282612b61565b612f1c8185612efc565b9350612f2c818560208601612b7d565b80840191505092915050565b6000612f448285612f07565b9150612f508284612dee565b6020820191508190509392505050565b612f6981612160565b82525050565b6000608082019050612f8460008301876123d0565b612f916020830186612f60565b612f9e60408301856123d0565b612fab60608301846123d0565b95945050505050565b60008160601b9050919050565b6000612fcc82612fb4565b9050919050565b6000612fde82612fc1565b9050919050565b612ff6612ff18261259e565b612fd3565b82525050565b60006130088287612e61565b6008820191506130188286612e97565b6004820191506130288285612fe5565b6014820191506130388284612dee565b6020820191508190509594505050505056fea264697066735822122086079a047729419473a86af085d429a98322b7c9e4958245513cf5f8f9fd7f2364736f6c634300080d0033",
  "immutableReferences": {},
  "source": "// SPDX-License-Identifier: MIT\npragma solidity >=0.8.13;\n\ncontract Supra {\n\n\tuint constant FINE = 10;\n\tuint constant REGISTER_FEE = FINE * 10;\n\tuint constant ACCUSATION_DEADLINE_DAYS = 3;\n\tuint constant MESSAGE_MAX_DELAY_HOURS = 2;\n\n\tstruct Accusation {\n\t\taddress payable accuser;\n\t\tuint defendant_id;\n\n\t\t// The message\n\t\tuint32 topic;\n\t\tbytes32 prev_hash;\n\t\tbytes32 data_hash;\n\t\tuint64 timestamp;\n\t\tuint8 sig_v;\n\t\tbytes32 sig_r;\n\t\tbytes32 sig_s;\n\n\t\t// The proof that the subscription exists\n\t\t\n\t\tuint64 open_timestamp;\n\t\tbytes32 open_prev_hash;\n\t\tuint8   open_sig_v;\n\t\tbytes32 open_sig_r;\n\t\tbytes32 open_sig_s;\n\n\t\tbool valid;\n\t\tuint256 deadline;\n\t\tuint block_number;\n\t}\n\n\tstruct Broker {\n\t\taddress payable account;\n\t\tbytes4 ipAddr;\n\t\tuint16 port;\n\t}\n\n\tstruct Message {\n\t\tbytes data;\n\t\tuint64  timestamp;\n\t\tbytes32 prev_hash;\n\t\tuint block_number;\n\t}\n\n\tmapping (address => uint) balances;\n\t\n\tAccusation[] accusations;\n\tBroker[] brokers;\n\tmapping (address => mapping (uint32 => Message[])) messages;\n\n\tevent Transfer(address indexed _from, address indexed _to, uint256 _value);\n\n\tevent NewMessage(address indexed from, uint64 indexed timestamp, uint32 indexed topic, bytes32 prev_hash, bytes data, uint message_id);\n\n\tevent BrokerInvalid(uint broker_id);\n\n\tevent LogBytes32(bytes32 b);\n\tevent LogBytes(bytes b);\n\n\tconstructor () {\n\t\t\n\t}\n\n\n\tfunction registerBroker(bytes4 _ipAddr, uint16 _port) public payable\n\t{\n\t\trequire(msg.value >= REGISTER_FEE);\n\t\tfor (uint i = 0; i < brokers.length; i++) {\n\t\t\trequire(brokers[i].account != msg.sender);\n\t\t}\n\n\t\tbalances[msg.sender] += msg.value;\n\t\tbrokers.push(Broker({\n\t\t\taccount: payable(msg.sender), \n\t\t\tipAddr: _ipAddr, \n\t\t\tport: _port\n\t\t}));\n\t}\n\n\tfunction getBrokers() public view returns(Broker[] memory)\n\t{\n\t\treturn brokers;\n\t}\n\n\n    function VerifyMessage(bytes32 _hashedMessage, uint8 _v, bytes32 _r, bytes32 _s) \n\t\tpublic pure returns (address) \n\t{\n        bytes memory prefix = \"\\x19Ethereum Signed Message:\\n32\";\n        bytes32 prefixedHashMessage = keccak256(abi.encodePacked(prefix, _hashedMessage));\n        address signer = ecrecover(prefixedHashMessage, _v, _r, _s);\n        return signer;\n    }\n\n\tfunction sendMessage(\n\t\tuint32 topic, \n\t\tbytes memory data, \n\t\tuint64 timestamp, \n\t\tbytes32 prev_hash, \n\t\tuint8 sig_v, \n\t\tbytes32 sig_r, \n\t\tbytes32 sig_s\n\t) public pure returns (address)\n\t{\n\t\treturn VerifyMessage(\n\t\t\t\tmessageHash(timestamp,topic, hashData(data), prev_hash), \n\t\t\t\tsig_v, sig_r, sig_s);\n\t}\n\tfunction sendMessage(\n\t\tuint32 topic, \n\t\tbytes memory data, \n\t\tuint64 timestamp, \n\t\tbytes32 prev_hash\n\t) public \n\t{\n\t\tmessages[msg.sender][topic].push(Message({\n\t\t\tdata: data,\n\t\t\ttimestamp: timestamp,\n\t\t\tprev_hash: prev_hash,\n\t\t\tblock_number: block.number\n\t\t}));\n\t\temit NewMessage(msg.sender, timestamp, topic, prev_hash, data, messages[msg.sender][topic].length-1);\n\n\t}\n\n\tfunction messageHash(\n\t\tuint64 timestamp,\n\t \tuint32 topic, \n\t\tbytes32 data_hash, \n\t\tbytes32 prev_hash\n    ) public pure returns (bytes32) {\n        return keccak256(abi.encodePacked(timestamp, topic, data_hash, prev_hash));\n    }\n\tfunction hashData(\n        bytes memory data\n    ) public pure returns (bytes32) {\n        return keccak256(data);\n    }\n\n\tfunction hashOpeningSub(\n\t\tuint64 timestamp,\n\t\tuint32 topic,\n        address subscriber,\n\t\tbytes32 prev_hash\n    ) public pure returns (bytes32) {\n        return keccak256(abi.encodePacked(timestamp, topic, subscriber, prev_hash));\n    }\n\n\tfunction ackHash(\n\t\tuint8 sig_v,\n\t\tbytes32 sig_r,\n\t\tbytes32 sig_s\n    ) public pure returns (bytes32) {\n        return keccak256(abi.encodePacked(sig_v, sig_r, sig_s));\n    }\n\n\tfunction _accuse_check_message(\n\t\tuint defendant_id,\n\t \tuint32 topic, \n\t\tbytes32 prev_hash, \n\t\tbytes32 data_hash,\n\t\tuint64 timestamp, \n\t\tuint8 sig_v,\n\t\tbytes32[2] memory sig_rs\n\t\t\n\t\t) private view\n\t{\n\t\taddress defendant = brokers[defendant_id].account;\n\t\tbytes32 msgHash = messageHash(timestamp,topic,data_hash,prev_hash);\n\t\trequire(defendant == VerifyMessage(\n\t\t\tmsgHash, \n\t\t\tsig_v, sig_rs[0], sig_rs[1])\n\t\t);\n\t}\n\tfunction _accuse_check_openning(\n\t\tuint defendant_id,\n\t \tuint32 topic, \n\n\t\tuint64 open_timestamp,\n\t\tbytes32 open_prev_hash,\n\t\tuint8   open_sig_v,\n\t\tbytes32[2] memory open_sig_rs\n\t\t\n\t\t) private view\n\t{\n\t\taddress defendant = brokers[defendant_id].account;\n\t\trequire(defendant == VerifyMessage(\n\t\t\thashOpeningSub(open_timestamp, topic, msg.sender, open_prev_hash), \n\t\t\topen_sig_v, open_sig_rs[0], open_sig_rs[1])\n\t\t);\n\n\t}\n\n\tfunction accuse(\n\t\tuint defendant_id,\n\t \tuint32 topic, \n\t\tbytes32 prev_hash, \n\t\tbytes32 data_hash,\n\t\tuint64 timestamp, \n\t\tuint8 sig_v,\n\t\tbytes32[2] memory sig_rs,\n\t\t//bytes32 sig_s,\n\n\t\tuint64 open_timestamp,\n\t\tbytes32 open_prev_hash,\n\t\tuint8   open_sig_v,\n\t\tbytes32[2] memory open_sig_rs\n\t\t//bytes32 open_sig_s\n\t\t\n\t\t) public payable\n\t{\n\t\trequire(msg.value >= FINE);\n\t\trequire(block.timestamp >= timestamp + (MESSAGE_MAX_DELAY_HOURS * 1 hours));\n\n\t\t_accuse_check_message(defendant_id, topic,prev_hash, data_hash, timestamp, sig_v, sig_rs);\n\t\t_accuse_check_openning(defendant_id, topic, open_timestamp, open_prev_hash, open_sig_v, open_sig_rs);\n\n\t\tbalances[msg.sender] += msg.value;\n\n\t\taccusations.push(Accusation({\n\t\t\taccuser: payable(msg.sender), \n\t\t\tdefendant_id: defendant_id, \n\t\t\ttopic: topic, \n\t\t\ttimestamp: timestamp,\n\t\t\tdata_hash: data_hash, \n\t\t\tprev_hash: prev_hash, \n\t\t\tsig_v: sig_v,\n\t\t\tsig_r: sig_rs[0],\n\t\t\tsig_s: sig_rs[1],\n\t\t\tvalid: true,\n\t\t\tdeadline: block.timestamp + (ACCUSATION_DEADLINE_DAYS * 1 days),\n\t\t\tblock_number: block.number,\n\t\t\topen_timestamp: open_timestamp,\n\t\t\topen_prev_hash: open_prev_hash,\n\t\t\topen_sig_v: open_sig_v,\n\t\t\topen_sig_r: open_sig_rs[0],\n\t\t\topen_sig_s: open_sig_rs[1]\n\t\t}));\n\t}\n\n\tfunction defendClosedSubOnChain(\n\t\tuint32 accusation_id, \n\t\tuint32 message_id)\n\t\tpublic\n\t{\n\t\tuint32 topic = accusations[accusation_id].topic;\n\t\tuint defendant_id = accusations[accusation_id].defendant_id;\n\t\taddress defendant = brokers[defendant_id].account;\n\n\t\tuint64 timestamp = accusations[accusation_id].timestamp;\n\n\t\tbytes32 open_hash = hashOpeningSub(\n\t\t\taccusations[accusation_id].open_timestamp,\n\t\t\taccusations[accusation_id].topic,\n\t\t\taccusations[accusation_id].accuser,\n\t\t\taccusations[accusation_id].open_prev_hash);\n\n\t\t// m is a closing message\n\t\tMessage storage m = messages[defendant][topic][message_id]; \n\n\t\trequire(m.timestamp < timestamp);\t\t\n\t\trequire(m.block_number < accusations[accusation_id].block_number);\n\t\trequire(bytesToBytes32(m.data) == open_hash);\n\n\t\t_payeAccuserFine(accusation_id);\n\t\t\n\t}\n\tfunction defendClosedSubOffChain(\n\t\tuint32 accusation_id,\n\n\t\t// the closing message\n\t\tuint32 topic, \n\t\tuint64 timestamp,\n\t\tbytes memory data,\n\t\tbytes32 prevHash,\n\t\t\n\t\t// the signature of its hash by the accuser (i.e. the ack of the message)\n\t\tuint8 _v, \n\t\tbytes32 _r, \n\t\tbytes32 _s)\n\t\tpublic\n\t{\n\t\t\n\t\t// A message has been sent before the accusing message\n\t\t// and appears in the same subscription (same topic, same publisher)\n\t\trequire(topic == accusations[accusation_id].topic);\n\t\trequire(msg.sender == brokers[accusations[accusation_id].defendant_id].account);\n\t\trequire(timestamp < accusations[accusation_id].timestamp);\n\n\t\t//it has been akcnowledged\n\t\tbytes32 msgHash = messageHash(timestamp, topic, hashData(data), prevHash);\n\t\taddress accuser = accusations[accusation_id].accuser;\n\t\trequire(accuser == VerifyMessage(msgHash, _v, _r, _s));\n\n\t\t// and it is a closing message\n\t\tbytes32 open_hash = hashOpeningSub(\n\t\t\taccusations[accusation_id].open_timestamp,\n\t\t\taccusations[accusation_id].topic,\n\t\t\taccusations[accusation_id].accuser,\n\t\t\taccusations[accusation_id].open_prev_hash);\n\n\t\trequire(bytesToBytes32(data) == open_hash);\n\n\t\t_payeAccuserFine(accusation_id);\n\t\t\n\t}\n\tfunction bytesToBytes32(bytes memory b) private pure returns (bytes32) {\n\t\trequire(b.length == 32);\n\t\tbytes32 out;\n\t\tfor (uint i = 0; i < 32; i++) {\n\t\t\tout |= bytes32(b[i]) >> (i * 8);\n\t\t}\n\t\treturn out;\n\t}\n\n\tfunction defendOnChain(uint32 accusation_id, uint32 message_id)\n\t\tpublic\n\t{\n\t\tuint32 topic = accusations[accusation_id].topic;\n\t\tuint defendant_id = accusations[accusation_id].defendant_id;\n\t\taddress defendant = brokers[defendant_id].account;\n\n\t\tbytes32 missing_hash = accusations[accusation_id].prev_hash;\n\n\t\tMessage storage m = messages[defendant][topic][message_id]; \n\t\tbytes32 proof_hash = messageHash(m.timestamp, topic, hashData(m.data), m.prev_hash); \n\t\t\n\t\trequire(missing_hash == proof_hash);\n\t\trequire(accusations[accusation_id].block_number > m.block_number);\n\t\t\n\t\t_payeAccuserFine(accusation_id);\n\t\t\n\t}\n\tfunction defendOffChain(\n\t\tuint32 accusation_id, \n\n\t\t// the message\n\t\tuint32 topic, \n\t\tuint64 timestamp,\n\t\tbytes32 dataHash,\n\t\tbytes32 prevHash,\n\t\t\n\t\t// the signature of its hash by the accuser (i.e. the ack of the message)\n\t\tuint8 _v, \n\t\tbytes32 _r, \n\t\tbytes32 _s)\n\t\tpublic\n\t{\n\t\t// It is a message that has been sent after the accusing message\n\t\t// and that appear in the same subscription (same topic, same publisher)\n\t\trequire(topic == accusations[accusation_id].topic);\n\t\trequire(msg.sender == brokers[accusations[accusation_id].defendant_id].account);\n\t\trequire(timestamp > accusations[accusation_id].timestamp);\n\n\t\t// and it has been acknowledged\n\t\tbytes32 msgHash = messageHash(timestamp, topic, dataHash, prevHash);\n\t\taddress accuser = accusations[accusation_id].accuser;\n\t\trequire(accuser == VerifyMessage(msgHash, _v, _r, _s));\n\n\t\t\t\t\n\t\t_payeAccuserFine(accusation_id);\n\t}\n\n\tfunction redeemAccusationFine(uint accusation_id) private {\n\n\t\trequire(accusations[accusation_id].valid);\n\t\trequire(accusations[accusation_id].deadline < block.timestamp);\n\n\t\taddress accuser = accusations[accusation_id].accuser;\n\t\tuint defendant_id = accusations[accusation_id].defendant_id;\n\t\taddress defendant = brokers[defendant_id].account;\n\n\t\trequire(balances[defendant] >= FINE);\n\t\trequire(balances[accuser] >= FINE);\n\n\t\tbalances[defendant] -= FINE;\n\t\tbalances[accuser] -= FINE;\n\t\tpayable(accuser).transfer( 2 * FINE );\n\n\t\t// after the payment, the broker should still be able to paye a fine\n\t\tif(balances[defendant] < FINE) {\n\t\t\temit BrokerInvalid(defendant_id);\n\t\t}\n\t}\n\n\tfunction _payeAccuserFine(uint accusation_id) private {\n\n\t\taddress accuser = accusations[accusation_id].accuser;\n\t\taddress defendant = brokers[accusations[accusation_id].defendant_id].account;\n\t\taccusations[accusation_id].valid = false;\n\n\t\trequire(balances[accuser] >= FINE);\n\n\t\tbalances[accuser] -= FINE;\n\t\tbalances[defendant] += FINE;\n\t\n\t}\n\n\tfunction getBalance(address addr) public view returns(uint) {\n\t\treturn balances[addr];\n\t}\n\n}\n",
  "sourcePath": "/Users/quentinbramas/Projects/SUPRA/contracts/Supra.sol",
  "compiler": {
    "name": "solc",
    "version": "0.8.13+commit.abaa5c0e.Emscripten.clang"
  },
  "schemaVersion": "3.4.6",
  "updatedAt": "2022-05-17T12:46:57.794Z",
  "networkType": "ethereum",
  "devdoc": {
    "kind": "dev",
    "methods": {},
    "version": 1
  },
  "userdoc": {
    "kind": "user",
    "methods": {},
    "version": 1
  }
}