{
  "contractName": "Supra",
  "abi": [
    {
      "inputs": [],
      "stateMutability": "nonpayable",
      "type": "constructor"
    },
    {
      "anonymous": false,
      "inputs": [
        {
          "indexed": false,
          "internalType": "uint256",
          "name": "broker_id",
          "type": "uint256"
        }
      ],
      "name": "BrokerInvalid",
      "type": "event"
    },
    {
      "anonymous": false,
      "inputs": [
        {
          "indexed": false,
          "internalType": "bytes",
          "name": "b",
          "type": "bytes"
        }
      ],
      "name": "LogBytes",
      "type": "event"
    },
    {
      "anonymous": false,
      "inputs": [
        {
          "indexed": false,
          "internalType": "bytes32",
          "name": "b",
          "type": "bytes32"
        }
      ],
      "name": "LogBytes32",
      "type": "event"
    },
    {
      "anonymous": false,
      "inputs": [
        {
          "indexed": true,
          "internalType": "address",
          "name": "from",
          "type": "address"
        },
        {
          "indexed": true,
          "internalType": "uint64",
          "name": "timestamp",
          "type": "uint64"
        },
        {
          "indexed": true,
          "internalType": "uint32",
          "name": "topic",
          "type": "uint32"
        },
        {
          "indexed": false,
          "internalType": "bytes32",
          "name": "prev_hash",
          "type": "bytes32"
        },
        {
          "indexed": false,
          "internalType": "bytes",
          "name": "data",
          "type": "bytes"
        }
      ],
      "name": "NewMessage",
      "type": "event"
    },
    {
      "anonymous": false,
      "inputs": [
        {
          "indexed": true,
          "internalType": "address",
          "name": "_from",
          "type": "address"
        },
        {
          "indexed": true,
          "internalType": "address",
          "name": "_to",
          "type": "address"
        },
        {
          "indexed": false,
          "internalType": "uint256",
          "name": "_value",
          "type": "uint256"
        }
      ],
      "name": "Transfer",
      "type": "event"
    },
    {
      "inputs": [
        {
          "internalType": "bytes4",
          "name": "_ipAddr",
          "type": "bytes4"
        }
      ],
      "name": "registerBroker",
      "outputs": [],
      "stateMutability": "payable",
      "type": "function"
    },
    {
      "inputs": [],
      "name": "getBrokers",
      "outputs": [
        {
          "components": [
            {
              "internalType": "address payable",
              "name": "account",
              "type": "address"
            },
            {
              "internalType": "bytes4",
              "name": "ipAddr",
              "type": "bytes4"
            }
          ],
          "internalType": "struct Supra.Broker[]",
          "name": "",
          "type": "tuple[]"
        }
      ],
      "stateMutability": "view",
      "type": "function"
    },
    {
      "inputs": [
        {
          "internalType": "bytes32",
          "name": "_hashedMessage",
          "type": "bytes32"
        },
        {
          "internalType": "uint8",
          "name": "_v",
          "type": "uint8"
        },
        {
          "internalType": "bytes32",
          "name": "_r",
          "type": "bytes32"
        },
        {
          "internalType": "bytes32",
          "name": "_s",
          "type": "bytes32"
        }
      ],
      "name": "VerifyMessage",
      "outputs": [
        {
          "internalType": "address",
          "name": "",
          "type": "address"
        }
      ],
      "stateMutability": "pure",
      "type": "function"
    },
    {
      "inputs": [
        {
          "internalType": "uint32",
          "name": "topic",
          "type": "uint32"
        },
        {
          "internalType": "bytes",
          "name": "data",
          "type": "bytes"
        },
        {
          "internalType": "uint64",
          "name": "timestamp",
          "type": "uint64"
        },
        {
          "internalType": "bytes32",
          "name": "prev_hash",
          "type": "bytes32"
        }
      ],
      "name": "sendMessage",
      "outputs": [],
      "stateMutability": "nonpayable",
      "type": "function"
    },
    {
      "inputs": [
        {
          "internalType": "uint32",
          "name": "topic",
          "type": "uint32"
        },
        {
          "internalType": "bytes",
          "name": "data",
          "type": "bytes"
        },
        {
          "internalType": "uint64",
          "name": "timestamp",
          "type": "uint64"
        },
        {
          "internalType": "bytes32",
          "name": "prev_hash",
          "type": "bytes32"
        },
        {
          "internalType": "uint8",
          "name": "sig_v",
          "type": "uint8"
        },
        {
          "internalType": "bytes32",
          "name": "sig_r",
          "type": "bytes32"
        },
        {
          "internalType": "bytes32",
          "name": "sig_s",
          "type": "bytes32"
        }
      ],
      "name": "sendMessage",
      "outputs": [
        {
          "internalType": "address",
          "name": "",
          "type": "address"
        }
      ],
      "stateMutability": "pure",
      "type": "function"
    },
    {
      "inputs": [
        {
          "internalType": "uint64",
          "name": "timestamp",
          "type": "uint64"
        },
        {
          "internalType": "uint32",
          "name": "topic",
          "type": "uint32"
        },
        {
          "internalType": "bytes32",
          "name": "data_hash",
          "type": "bytes32"
        },
        {
          "internalType": "bytes32",
          "name": "prev_hash",
          "type": "bytes32"
        }
      ],
      "name": "messageHash",
      "outputs": [
        {
          "internalType": "bytes32",
          "name": "",
          "type": "bytes32"
        }
      ],
      "stateMutability": "pure",
      "type": "function"
    },
    {
      "inputs": [
        {
          "internalType": "bytes",
          "name": "data",
          "type": "bytes"
        }
      ],
      "name": "hashData",
      "outputs": [
        {
          "internalType": "bytes32",
          "name": "",
          "type": "bytes32"
        }
      ],
      "stateMutability": "pure",
      "type": "function"
    },
    {
      "inputs": [
        {
          "internalType": "uint64",
          "name": "timestamp",
          "type": "uint64"
        },
        {
          "internalType": "uint32",
          "name": "topic",
          "type": "uint32"
        },
        {
          "internalType": "address",
          "name": "subscriber",
          "type": "address"
        },
        {
          "internalType": "bytes32",
          "name": "prev_hash",
          "type": "bytes32"
        }
      ],
      "name": "hashOpeningSub",
      "outputs": [
        {
          "internalType": "bytes32",
          "name": "",
          "type": "bytes32"
        }
      ],
      "stateMutability": "pure",
      "type": "function"
    },
    {
      "inputs": [
        {
          "internalType": "uint8",
          "name": "sig_v",
          "type": "uint8"
        },
        {
          "internalType": "bytes32",
          "name": "sig_r",
          "type": "bytes32"
        },
        {
          "internalType": "bytes32",
          "name": "sig_s",
          "type": "bytes32"
        }
      ],
      "name": "ackHash",
      "outputs": [
        {
          "internalType": "bytes32",
          "name": "",
          "type": "bytes32"
        }
      ],
      "stateMutability": "pure",
      "type": "function"
    },
    {
      "inputs": [
        {
          "internalType": "uint256",
          "name": "defendant_id",
          "type": "uint256"
        },
        {
          "internalType": "uint32",
          "name": "topic",
          "type": "uint32"
        },
        {
          "internalType": "bytes32",
          "name": "prev_hash",
          "type": "bytes32"
        },
        {
          "internalType": "bytes32",
          "name": "data_hash",
          "type": "bytes32"
        },
        {
          "internalType": "uint64",
          "name": "timestamp",
          "type": "uint64"
        },
        {
          "internalType": "uint8",
          "name": "sig_v",
          "type": "uint8"
        },
        {
          "internalType": "bytes32[2]",
          "name": "sig_rs",
          "type": "bytes32[2]"
        },
        {
          "internalType": "uint64",
          "name": "open_timestamp",
          "type": "uint64"
        },
        {
          "internalType": "bytes32",
          "name": "open_prev_hash",
          "type": "bytes32"
        },
        {
          "internalType": "uint8",
          "name": "open_sig_v",
          "type": "uint8"
        },
        {
          "internalType": "bytes32[2]",
          "name": "open_sig_rs",
          "type": "bytes32[2]"
        }
      ],
      "name": "accuse",
      "outputs": [],
      "stateMutability": "payable",
      "type": "function"
    },
    {
      "inputs": [
        {
          "internalType": "uint32",
          "name": "accusation_id",
          "type": "uint32"
        },
        {
          "internalType": "uint32",
          "name": "message_id",
          "type": "uint32"
        }
      ],
      "name": "defendClosedSubOnChain",
      "outputs": [],
      "stateMutability": "nonpayable",
      "type": "function"
    },
    {
      "inputs": [
        {
          "internalType": "uint32",
          "name": "accusation_id",
          "type": "uint32"
        },
        {
          "internalType": "uint32",
          "name": "topic",
          "type": "uint32"
        },
        {
          "internalType": "uint64",
          "name": "timestamp",
          "type": "uint64"
        },
        {
          "internalType": "bytes",
          "name": "data",
          "type": "bytes"
        },
        {
          "internalType": "bytes32",
          "name": "prevHash",
          "type": "bytes32"
        },
        {
          "internalType": "uint8",
          "name": "_v",
          "type": "uint8"
        },
        {
          "internalType": "bytes32",
          "name": "_r",
          "type": "bytes32"
        },
        {
          "internalType": "bytes32",
          "name": "_s",
          "type": "bytes32"
        }
      ],
      "name": "defendClosedSubOffChain",
      "outputs": [],
      "stateMutability": "nonpayable",
      "type": "function"
    },
    {
      "inputs": [
        {
          "internalType": "uint32",
          "name": "accusation_id",
          "type": "uint32"
        },
        {
          "internalType": "uint32",
          "name": "message_id",
          "type": "uint32"
        }
      ],
      "name": "defendOnChain",
      "outputs": [],
      "stateMutability": "nonpayable",
      "type": "function"
    },
    {
      "inputs": [
        {
          "internalType": "uint32",
          "name": "accusation_id",
          "type": "uint32"
        },
        {
          "internalType": "uint32",
          "name": "topic",
          "type": "uint32"
        },
        {
          "internalType": "uint64",
          "name": "timestamp",
          "type": "uint64"
        },
        {
          "internalType": "bytes32",
          "name": "dataHash",
          "type": "bytes32"
        },
        {
          "internalType": "bytes32",
          "name": "prevHash",
          "type": "bytes32"
        },
        {
          "internalType": "uint8",
          "name": "_v",
          "type": "uint8"
        },
        {
          "internalType": "bytes32",
          "name": "_r",
          "type": "bytes32"
        },
        {
          "internalType": "bytes32",
          "name": "_s",
          "type": "bytes32"
        }
      ],
      "name": "defendOffChain",
      "outputs": [],
      "stateMutability": "nonpayable",
      "type": "function"
    },
    {
      "inputs": [
        {
          "internalType": "address",
          "name": "addr",
          "type": "address"
        }
      ],
      "name": "getBalance",
      "outputs": [
        {
          "internalType": "uint256",
          "name": "",
          "type": "uint256"
        }
      ],
      "stateMutability": "view",
      "type": "function"
    }
  ],
  "bytecode": "0x608060405234801561001057600080fd5b50612f48806100206000396000f3fe6080604052600436106100e85760003560e01c8063746bf4dd1161008a578063de9c6c0411610059578063de9c6c04146102f5578063e66ef92d14610332578063f303efdb1461036f578063f8b2cb4f1461038b576100e8565b8063746bf4dd14610248578063805cf37c14610285578063823ddb7f146102ae5780638e001654146102ca576100e8565b80634a500a6c116100c65780634a500a6c14610168578063521df64e146101a557806353e343b3146101ce578063659934c11461020b576100e8565b80630a905cf8146100ed5780630b212e281461011657806333dc0e411461013f575b600080fd5b3480156100f957600080fd5b50610114600480360381019061010f9190612022565b6103c8565b005b34801561012257600080fd5b5061013d600480360381019061013891906120de565b610542565b005b34801561014b57600080fd5b50610166600480360381019061016191906121b0565b610873565b005b34801561017457600080fd5b5061018f600480360381019061018a91906121f0565b610aff565b60405161019c9190612252565b60405180910390f35b3480156101b157600080fd5b506101cc60048036038101906101c7919061226d565b610b35565b005b3480156101da57600080fd5b506101f560048036038101906101f09190612323565b610d49565b6040516102029190612252565b60405180910390f35b34801561021757600080fd5b50610232600480360381019061022d919061238a565b610d82565b60405161023f9190612432565b60405180910390f35b34801561025457600080fd5b5061026f600480360381019061026a919061244d565b610e4b565b60405161027c9190612432565b60405180910390f35b34801561029157600080fd5b506102ac60048036038101906102a791906121b0565b610e79565b005b6102c860048036038101906102c391906125f7565b611225565b005b3480156102d657600080fd5b506102df6115cd565b6040516102ec9190612826565b60405180910390f35b34801561030157600080fd5b5061031c60048036038101906103179190612874565b6116d3565b6040516103299190612252565b60405180910390f35b34801561033e57600080fd5b50610359600480360381019061035491906128db565b61170c565b6040516103669190612252565b60405180910390f35b61038960048036038101906103849190612950565b61171d565b005b34801561039757600080fd5b506103b260048036038101906103ad919061297d565b611909565b6040516103bf91906129b9565b60405180910390f35b600360003373ffffffffffffffffffffffffffffffffffffffff1673ffffffffffffffffffffffffffffffffffffffff16815260200190815260200160002060008563ffffffff1663ffffffff16815260200190815260200160002060405180608001604052808581526020018467ffffffffffffffff1681526020018381526020014381525090806001815401808255809150506001900390600052602060002090600402016000909190919091506000820151816000019080519060200190610494929190611d73565b5060208201518160010160006101000a81548167ffffffffffffffff021916908367ffffffffffffffff160217905550604082015181600201556060820151816003015550508363ffffffff168267ffffffffffffffff163373ffffffffffffffffffffffffffffffffffffffff167ff8dc5b32120520d174cbad9447a3e4a656cacbedf076de920271c94d3f4cbe6b8487604051610534929190612a5c565b60405180910390a450505050565b60018863ffffffff168154811061055c5761055b612a8c565b5b906000526020600020906010020160020160009054906101000a900463ffffffff1663ffffffff168763ffffffff161461059557600080fd5b600260018963ffffffff16815481106105b1576105b0612a8c565b5b906000526020600020906010020160010154815481106105d4576105d3612a8c565b5b9060005260206000200160000160009054906101000a900473ffffffffffffffffffffffffffffffffffffffff1673ffffffffffffffffffffffffffffffffffffffff163373ffffffffffffffffffffffffffffffffffffffff161461063957600080fd5b60018863ffffffff168154811061065357610652612a8c565b5b906000526020600020906010020160050160009054906101000a900467ffffffffffffffff1667ffffffffffffffff168667ffffffffffffffff161061069857600080fd5b60006106ae87896106a88961170c565b88610d49565b9050600060018a63ffffffff16815481106106cc576106cb612a8c565b5b906000526020600020906010020160000160009054906101000a900473ffffffffffffffffffffffffffffffffffffffff16905061070c82868686610d82565b73ffffffffffffffffffffffffffffffffffffffff168173ffffffffffffffffffffffffffffffffffffffff161461074357600080fd5b600061084160018c63ffffffff168154811061076257610761612a8c565b5b906000526020600020906010020160080160009054906101000a900467ffffffffffffffff1660018d63ffffffff16815481106107a2576107a1612a8c565b5b906000526020600020906010020160020160009054906101000a900463ffffffff1660018e63ffffffff16815481106107de576107dd612a8c565b5b906000526020600020906010020160000160009054906101000a900473ffffffffffffffffffffffffffffffffffffffff1660018f63ffffffff168154811061082a57610829612a8c565b5b9060005260206000209060100201600901546116d3565b90508061084d89611951565b1461085757600080fd5b6108668b63ffffffff166119e2565b5050505050505050505050565b600060018363ffffffff168154811061088f5761088e612a8c565b5b906000526020600020906010020160020160009054906101000a900463ffffffff169050600060018463ffffffff16815481106108cf576108ce612a8c565b5b90600052602060002090601002016001015490506000600282815481106108f9576108f8612a8c565b5b9060005260206000200160000160009054906101000a900473ffffffffffffffffffffffffffffffffffffffff169050600060018663ffffffff168154811061094557610944612a8c565b5b90600052602060002090601002016003015490506000600360008473ffffffffffffffffffffffffffffffffffffffff1673ffffffffffffffffffffffffffffffffffffffff16815260200190815260200160002060008663ffffffff1663ffffffff1681526020019081526020016000208663ffffffff16815481106109cf576109ce612a8c565b5b906000526020600020906004020190506000610a9d8260010160009054906101000a900467ffffffffffffffff1687610a93856000018054610a1090612aea565b80601f0160208091040260200160405190810160405280929190818152602001828054610a3c90612aea565b8015610a895780601f10610a5e57610100808354040283529160200191610a89565b820191906000526020600020905b815481529060010190602001808311610a6c57829003601f168201915b505050505061170c565b8560020154610d49565b9050808314610aab57600080fd5b816003015460018963ffffffff1681548110610aca57610ac9612a8c565b5b9060005260206000209060100201600f015411610ae657600080fd5b610af58863ffffffff166119e2565b5050505050505050565b6000838383604051602001610b1693929190612b72565b6040516020818303038152906040528051906020012090509392505050565b60018863ffffffff1681548110610b4f57610b4e612a8c565b5b906000526020600020906010020160020160009054906101000a900463ffffffff1663ffffffff168763ffffffff1614610b8857600080fd5b600260018963ffffffff1681548110610ba457610ba3612a8c565b5b90600052602060002090601002016001015481548110610bc757610bc6612a8c565b5b9060005260206000200160000160009054906101000a900473ffffffffffffffffffffffffffffffffffffffff1673ffffffffffffffffffffffffffffffffffffffff163373ffffffffffffffffffffffffffffffffffffffff1614610c2c57600080fd5b60018863ffffffff1681548110610c4657610c45612a8c565b5b906000526020600020906010020160050160009054906101000a900467ffffffffffffffff1667ffffffffffffffff168667ffffffffffffffff1611610c8b57600080fd5b6000610c9987898888610d49565b9050600060018a63ffffffff1681548110610cb757610cb6612a8c565b5b906000526020600020906010020160000160009054906101000a900473ffffffffffffffffffffffffffffffffffffffff169050610cf782868686610d82565b73ffffffffffffffffffffffffffffffffffffffff168173ffffffffffffffffffffffffffffffffffffffff1614610d2e57600080fd5b610d3d8a63ffffffff166119e2565b50505050505050505050565b600084848484604051602001610d629493929190612c1b565b604051602081830303815290604052805190602001209050949350505050565b6000806040518060400160405280601c81526020017f19457468657265756d205369676e6564204d6573736167653a0a333200000000815250905060008187604051602001610dd2929190612ca5565b604051602081830303815290604052805190602001209050600060018288888860405160008152602001604052604051610e0f9493929190612cdc565b6020604051602081039080840390855afa158015610e31573d6000803e3d6000fd5b505050602060405103519050809350505050949350505050565b6000610e6c610e64878a610e5e8b61170c565b89610d49565b858585610d82565b9050979650505050505050565b600060018363ffffffff1681548110610e9557610e94612a8c565b5b906000526020600020906010020160020160009054906101000a900463ffffffff169050600060018463ffffffff1681548110610ed557610ed4612a8c565b5b9060005260206000209060100201600101549050600060028281548110610eff57610efe612a8c565b5b9060005260206000200160000160009054906101000a900473ffffffffffffffffffffffffffffffffffffffff169050600060018663ffffffff1681548110610f4b57610f4a612a8c565b5b906000526020600020906010020160050160009054906101000a900467ffffffffffffffff169050600061107160018863ffffffff1681548110610f9257610f91612a8c565b5b906000526020600020906010020160080160009054906101000a900467ffffffffffffffff1660018963ffffffff1681548110610fd257610fd1612a8c565b5b906000526020600020906010020160020160009054906101000a900463ffffffff1660018a63ffffffff168154811061100e5761100d612a8c565b5b906000526020600020906010020160000160009054906101000a900473ffffffffffffffffffffffffffffffffffffffff1660018b63ffffffff168154811061105a57611059612a8c565b5b9060005260206000209060100201600901546116d3565b90506000600360008573ffffffffffffffffffffffffffffffffffffffff1673ffffffffffffffffffffffffffffffffffffffff16815260200190815260200160002060008763ffffffff1663ffffffff1681526020019081526020016000208763ffffffff16815481106110e9576110e8612a8c565b5b906000526020600020906004020190508267ffffffffffffffff168160010160009054906101000a900467ffffffffffffffff1667ffffffffffffffff161061113157600080fd5b60018863ffffffff168154811061114b5761114a612a8c565b5b9060005260206000209060100201600f015481600301541061116c57600080fd5b8161120282600001805461117f90612aea565b80601f01602080910402602001604051908101604052809291908181526020018280546111ab90612aea565b80156111f85780601f106111cd576101008083540402835291602001916111f8565b820191906000526020600020905b8154815290600101906020018083116111db57829003601f168201915b5050505050611951565b1461120c57600080fd5b61121b8863ffffffff166119e2565b5050505050505050565b600a34101561123357600080fd5b610e1060026112429190612d50565b8767ffffffffffffffff166112579190612daa565b42101561126357600080fd5b6112728b8b8b8b8b8b8b611bd2565b6112808b8b86868686611ca6565b346000803373ffffffffffffffffffffffffffffffffffffffff1673ffffffffffffffffffffffffffffffffffffffff16815260200190815260200160002060008282546112ce9190612daa565b9250508190555060016040518061022001604052803373ffffffffffffffffffffffffffffffffffffffff1681526020018d81526020018c63ffffffff1681526020018b81526020018a81526020018967ffffffffffffffff1681526020018860ff1681526020018760006002811061134a57611349612a8c565b5b602002015181526020018760016002811061136857611367612a8c565b5b602002015181526020018667ffffffffffffffff1681526020018581526020018460ff168152602001836000600281106113a5576113a4612a8c565b5b60200201518152602001836001600281106113c3576113c2612a8c565b5b602002015181526020016001151581526020016201518060036113e69190612d50565b426113f19190612daa565b815260200143815250908060018154018082558091505060019003906000526020600020906010020160009091909190915060008201518160000160006101000a81548173ffffffffffffffffffffffffffffffffffffffff021916908373ffffffffffffffffffffffffffffffffffffffff1602179055506020820151816001015560408201518160020160006101000a81548163ffffffff021916908363ffffffff160217905550606082015181600301556080820151816004015560a08201518160050160006101000a81548167ffffffffffffffff021916908367ffffffffffffffff16021790555060c08201518160050160086101000a81548160ff021916908360ff16021790555060e0820151816006015561010082015181600701556101208201518160080160006101000a81548167ffffffffffffffff021916908367ffffffffffffffff160217905550610140820151816009015561016082015181600a0160006101000a81548160ff021916908360ff16021790555061018082015181600b01556101a082015181600c01556101c082015181600d0160006101000a81548160ff0219169083151502179055506101e082015181600e015561020082015181600f015550505050505050505050505050565b60606002805480602002602001604051908101604052809291908181526020016000905b828210156116ca578382906000526020600020016040518060400160405290816000820160009054906101000a900473ffffffffffffffffffffffffffffffffffffffff1673ffffffffffffffffffffffffffffffffffffffff1673ffffffffffffffffffffffffffffffffffffffff1681526020016000820160149054906101000a900460e01b7bffffffffffffffffffffffffffffffffffffffffffffffffffffffff19167bffffffffffffffffffffffffffffffffffffffffffffffffffffffff191681525050815260200190600101906115f1565b50505050905090565b6000848484846040516020016116ec9493929190612e48565b604051602081830303815290604052805190602001209050949350505050565b600081805190602001209050919050565b600a8061172a9190612d50565b34101561173657600080fd5b60005b6002805490508110156117d2573373ffffffffffffffffffffffffffffffffffffffff166002828154811061177157611770612a8c565b5b9060005260206000200160000160009054906101000a900473ffffffffffffffffffffffffffffffffffffffff1673ffffffffffffffffffffffffffffffffffffffff16036117bf57600080fd5b80806117ca90612e96565b915050611739565b50346000803373ffffffffffffffffffffffffffffffffffffffff1673ffffffffffffffffffffffffffffffffffffffff16815260200190815260200160002060008282546118219190612daa565b92505081905550600260405180604001604052803373ffffffffffffffffffffffffffffffffffffffff168152602001837bffffffffffffffffffffffffffffffffffffffffffffffffffffffff19168152509080600181540180825580915050600190039060005260206000200160009091909190915060008201518160000160006101000a81548173ffffffffffffffffffffffffffffffffffffffff021916908373ffffffffffffffffffffffffffffffffffffffff16021790555060208201518160000160146101000a81548163ffffffff021916908360e01c0217905550505050565b60008060008373ffffffffffffffffffffffffffffffffffffffff1673ffffffffffffffffffffffffffffffffffffffff168152602001908152602001600020549050919050565b6000602082511461196157600080fd5b600080600090505b60208110156119d85760088161197f9190612d50565b84828151811061199257611991612a8c565b5b602001015160f81c60f81b7effffffffffffffffffffffffffffffffffffffffffffffffffffffffffffff1916901c8217915080806119d090612e96565b915050611969565b5080915050919050565b6000600182815481106119f8576119f7612a8c565b5b906000526020600020906010020160000160009054906101000a900473ffffffffffffffffffffffffffffffffffffffff1690506000600260018481548110611a4457611a43612a8c565b5b90600052602060002090601002016001015481548110611a6757611a66612a8c565b5b9060005260206000200160000160009054906101000a900473ffffffffffffffffffffffffffffffffffffffff169050600060018481548110611aad57611aac612a8c565b5b9060005260206000209060100201600d0160006101000a81548160ff021916908315150217905550600a6000808473ffffffffffffffffffffffffffffffffffffffff1673ffffffffffffffffffffffffffffffffffffffff168152602001908152602001600020541015611b2157600080fd5b600a6000808473ffffffffffffffffffffffffffffffffffffffff1673ffffffffffffffffffffffffffffffffffffffff1681526020019081526020016000206000828254611b709190612ede565b92505081905550600a6000808373ffffffffffffffffffffffffffffffffffffffff1673ffffffffffffffffffffffffffffffffffffffff1681526020019081526020016000206000828254611bc69190612daa565b92505081905550505050565b600060028881548110611be857611be7612a8c565b5b9060005260206000200160000160009054906101000a900473ffffffffffffffffffffffffffffffffffffffff1690506000611c268589888a610d49565b9050611c64818585600060028110611c4157611c40612a8c565b5b602002015186600160028110611c5a57611c59612a8c565b5b6020020151610d82565b73ffffffffffffffffffffffffffffffffffffffff168273ffffffffffffffffffffffffffffffffffffffff1614611c9b57600080fd5b505050505050505050565b600060028781548110611cbc57611cbb612a8c565b5b9060005260206000200160000160009054906101000a900473ffffffffffffffffffffffffffffffffffffffff169050611d33611cfb868833886116d3565b8484600060028110611d1057611d0f612a8c565b5b602002015185600160028110611d2957611d28612a8c565b5b6020020151610d82565b73ffffffffffffffffffffffffffffffffffffffff168173ffffffffffffffffffffffffffffffffffffffff1614611d6a57600080fd5b50505050505050565b828054611d7f90612aea565b90600052602060002090601f016020900481019282611da15760008555611de8565b82601f10611dba57805160ff1916838001178555611de8565b82800160010185558215611de8579182015b82811115611de7578251825591602001919060010190611dcc565b5b509050611df59190611df9565b5090565b5b80821115611e12576000816000905550600101611dfa565b5090565b6000604051905090565b600080fd5b600080fd5b600063ffffffff82169050919050565b611e4381611e2a565b8114611e4e57600080fd5b50565b600081359050611e6081611e3a565b92915050565b600080fd5b600080fd5b6000601f19601f8301169050919050565b7f4e487b7100000000000000000000000000000000000000000000000000000000600052604160045260246000fd5b611eb982611e70565b810181811067ffffffffffffffff82111715611ed857611ed7611e81565b5b80604052505050565b6000611eeb611e16565b9050611ef78282611eb0565b919050565b600067ffffffffffffffff821115611f1757611f16611e81565b5b611f2082611e70565b9050602081019050919050565b82818337600083830152505050565b6000611f4f611f4a84611efc565b611ee1565b905082815260208101848484011115611f6b57611f6a611e6b565b5b611f76848285611f2d565b509392505050565b600082601f830112611f9357611f92611e66565b5b8135611fa3848260208601611f3c565b91505092915050565b600067ffffffffffffffff82169050919050565b611fc981611fac565b8114611fd457600080fd5b50565b600081359050611fe681611fc0565b92915050565b6000819050919050565b611fff81611fec565b811461200a57600080fd5b50565b60008135905061201c81611ff6565b92915050565b6000806000806080858703121561203c5761203b611e20565b5b600061204a87828801611e51565b945050602085013567ffffffffffffffff81111561206b5761206a611e25565b5b61207787828801611f7e565b935050604061208887828801611fd7565b92505060606120998782880161200d565b91505092959194509250565b600060ff82169050919050565b6120bb816120a5565b81146120c657600080fd5b50565b6000813590506120d8816120b2565b92915050565b600080600080600080600080610100898b0312156120ff576120fe611e20565b5b600061210d8b828c01611e51565b985050602061211e8b828c01611e51565b975050604061212f8b828c01611fd7565b965050606089013567ffffffffffffffff8111156121505761214f611e25565b5b61215c8b828c01611f7e565b955050608061216d8b828c0161200d565b94505060a061217e8b828c016120c9565b93505060c061218f8b828c0161200d565b92505060e06121a08b828c0161200d565b9150509295985092959890939650565b600080604083850312156121c7576121c6611e20565b5b60006121d585828601611e51565b92505060206121e685828601611e51565b9150509250929050565b60008060006060848603121561220957612208611e20565b5b6000612217868287016120c9565b93505060206122288682870161200d565b92505060406122398682870161200d565b9150509250925092565b61224c81611fec565b82525050565b60006020820190506122676000830184612243565b92915050565b600080600080600080600080610100898b03121561228e5761228d611e20565b5b600061229c8b828c01611e51565b98505060206122ad8b828c01611e51565b97505060406122be8b828c01611fd7565b96505060606122cf8b828c0161200d565b95505060806122e08b828c0161200d565b94505060a06122f18b828c016120c9565b93505060c06123028b828c0161200d565b92505060e06123138b828c0161200d565b9150509295985092959890939650565b6000806000806080858703121561233d5761233c611e20565b5b600061234b87828801611fd7565b945050602061235c87828801611e51565b935050604061236d8782880161200d565b925050606061237e8782880161200d565b91505092959194509250565b600080600080608085870312156123a4576123a3611e20565b5b60006123b28782880161200d565b94505060206123c3878288016120c9565b93505060406123d48782880161200d565b92505060606123e58782880161200d565b91505092959194509250565b600073ffffffffffffffffffffffffffffffffffffffff82169050919050565b600061241c826123f1565b9050919050565b61242c81612411565b82525050565b60006020820190506124476000830184612423565b92915050565b600080600080600080600060e0888a03121561246c5761246b611e20565b5b600061247a8a828b01611e51565b975050602088013567ffffffffffffffff81111561249b5761249a611e25565b5b6124a78a828b01611f7e565b96505060406124b88a828b01611fd7565b95505060606124c98a828b0161200d565b94505060806124da8a828b016120c9565b93505060a06124eb8a828b0161200d565b92505060c06124fc8a828b0161200d565b91505092959891949750929550565b6000819050919050565b61251e8161250b565b811461252957600080fd5b50565b60008135905061253b81612515565b92915050565b600067ffffffffffffffff82111561255c5761255b611e81565b5b602082029050919050565b600080fd5b600061257f61257a84612541565b611ee1565b9050806020840283018581111561259957612598612567565b5b835b818110156125c257806125ae888261200d565b84526020840193505060208101905061259b565b5050509392505050565b600082601f8301126125e1576125e0611e66565b5b60026125ee84828561256c565b91505092915050565b60008060008060008060008060008060006101a08c8e03121561261d5761261c611e20565b5b600061262b8e828f0161252c565b9b5050602061263c8e828f01611e51565b9a5050604061264d8e828f0161200d565b995050606061265e8e828f0161200d565b985050608061266f8e828f01611fd7565b97505060a06126808e828f016120c9565b96505060c06126918e828f016125cc565b9550506101006126a38e828f01611fd7565b9450506101206126b58e828f0161200d565b9350506101406126c78e828f016120c9565b9250506101606126d98e828f016125cc565b9150509295989b509295989b9093969950565b600081519050919050565b600082825260208201905092915050565b6000819050602082019050919050565b6000612723826123f1565b9050919050565b61273381612718565b82525050565b60007fffffffff0000000000000000000000000000000000000000000000000000000082169050919050565b61276e81612739565b82525050565b60408201600082015161278a600085018261272a565b50602082015161279d6020850182612765565b50505050565b60006127af8383612774565b60408301905092915050565b6000602082019050919050565b60006127d3826126ec565b6127dd81856126f7565b93506127e883612708565b8060005b8381101561281957815161280088826127a3565b975061280b836127bb565b9250506001810190506127ec565b5085935050505092915050565b6000602082019050818103600083015261284081846127c8565b905092915050565b61285181612411565b811461285c57600080fd5b50565b60008135905061286e81612848565b92915050565b6000806000806080858703121561288e5761288d611e20565b5b600061289c87828801611fd7565b94505060206128ad87828801611e51565b93505060406128be8782880161285f565b92505060606128cf8782880161200d565b91505092959194509250565b6000602082840312156128f1576128f0611e20565b5b600082013567ffffffffffffffff81111561290f5761290e611e25565b5b61291b84828501611f7e565b91505092915050565b61292d81612739565b811461293857600080fd5b50565b60008135905061294a81612924565b92915050565b60006020828403121561296657612965611e20565b5b60006129748482850161293b565b91505092915050565b60006020828403121561299357612992611e20565b5b60006129a18482850161285f565b91505092915050565b6129b38161250b565b82525050565b60006020820190506129ce60008301846129aa565b92915050565b600081519050919050565b600082825260208201905092915050565b60005b83811015612a0e5780820151818401526020810190506129f3565b83811115612a1d576000848401525b50505050565b6000612a2e826129d4565b612a3881856129df565b9350612a488185602086016129f0565b612a5181611e70565b840191505092915050565b6000604082019050612a716000830185612243565b8181036020830152612a838184612a23565b90509392505050565b7f4e487b7100000000000000000000000000000000000000000000000000000000600052603260045260246000fd5b7f4e487b7100000000000000000000000000000000000000000000000000000000600052602260045260246000fd5b60006002820490506001821680612b0257607f821691505b602082108103612b1557612b14612abb565b5b50919050565b60008160f81b9050919050565b6000612b3382612b1b565b9050919050565b612b4b612b46826120a5565b612b28565b82525050565b6000819050919050565b612b6c612b6782611fec565b612b51565b82525050565b6000612b7e8286612b3a565b600182019150612b8e8285612b5b565b602082019150612b9e8284612b5b565b602082019150819050949350505050565b60008160c01b9050919050565b6000612bc782612baf565b9050919050565b612bdf612bda82611fac565b612bbc565b82525050565b60008160e01b9050919050565b6000612bfd82612be5565b9050919050565b612c15612c1082611e2a565b612bf2565b82525050565b6000612c278287612bce565b600882019150612c378286612c04565b600482019150612c478285612b5b565b602082019150612c578284612b5b565b60208201915081905095945050505050565b600081905092915050565b6000612c7f826129d4565b612c898185612c69565b9350612c998185602086016129f0565b80840191505092915050565b6000612cb18285612c74565b9150612cbd8284612b5b565b6020820191508190509392505050565b612cd6816120a5565b82525050565b6000608082019050612cf16000830187612243565b612cfe6020830186612ccd565b612d0b6040830185612243565b612d186060830184612243565b95945050505050565b7f4e487b7100000000000000000000000000000000000000000000000000000000600052601160045260246000fd5b6000612d5b8261250b565b9150612d668361250b565b9250817fffffffffffffffffffffffffffffffffffffffffffffffffffffffffffffffff0483118215151615612d9f57612d9e612d21565b5b828202905092915050565b6000612db58261250b565b9150612dc08361250b565b9250827fffffffffffffffffffffffffffffffffffffffffffffffffffffffffffffffff03821115612df557612df4612d21565b5b828201905092915050565b60008160601b9050919050565b6000612e1882612e00565b9050919050565b6000612e2a82612e0d565b9050919050565b612e42612e3d82612411565b612e1f565b82525050565b6000612e548287612bce565b600882019150612e648286612c04565b600482019150612e748285612e31565b601482019150612e848284612b5b565b60208201915081905095945050505050565b6000612ea18261250b565b91507fffffffffffffffffffffffffffffffffffffffffffffffffffffffffffffffff8203612ed357612ed2612d21565b5b600182019050919050565b6000612ee98261250b565b9150612ef48361250b565b925082821015612f0757612f06612d21565b5b82820390509291505056fea26469706673582212207d6499cd27ebf39d96f010ce162a7f29e920b7838b6447ebe9cf623f4128e75764736f6c634300080d0033",
  "immutableReferences": {},
  "source": "// SPDX-License-Identifier: MIT\npragma solidity >=0.8.13;\n\ncontract Supra {\n\n\tuint constant FINE = 10;\n\tuint constant REGISTER_FEE = FINE * 10;\n\tuint constant ACCUSATION_DEADLINE_DAYS = 3;\n\tuint constant MESSAGE_MAX_DELAY_HOURS = 2;\n\n\tstruct Accusation {\n\t\taddress payable accuser;\n\t\tuint defendant_id;\n\n\t\t// The message\n\t\tuint32 topic;\n\t\tbytes32 prev_hash;\n\t\tbytes32 data_hash;\n\t\tuint64 timestamp;\n\t\tuint8 sig_v;\n\t\tbytes32 sig_r;\n\t\tbytes32 sig_s;\n\n\t\t// The proof that the subscription exists\n\t\t\n\t\tuint64 open_timestamp;\n\t\tbytes32 open_prev_hash;\n\t\tuint8   open_sig_v;\n\t\tbytes32 open_sig_r;\n\t\tbytes32 open_sig_s;\n\n\t\tbool valid;\n\t\tuint256 deadline;\n\t\tuint block_number;\n\t}\n\n\tstruct Broker {\n\t\taddress payable account;\n\t\tbytes4 ipAddr;\n\t}\n\n\tstruct Message {\n\t\tbytes data;\n\t\tuint64  timestamp;\n\t\tbytes32 prev_hash;\n\t\tuint block_number;\n\t}\n\n\tmapping (address => uint) balances;\n\t\n\tAccusation[] accusations;\n\tBroker[] brokers;\n\tmapping (address => mapping (uint32 => Message[])) messages;\n\n\tevent Transfer(address indexed _from, address indexed _to, uint256 _value);\n\n\tevent NewMessage(address indexed from, uint64 indexed timestamp, uint32 indexed topic, bytes32 prev_hash, bytes data);\n\n\tevent BrokerInvalid(uint broker_id);\n\n\tevent LogBytes32(bytes32 b);\n\tevent LogBytes(bytes b);\n\n\tconstructor () {\n\t\t\n\t}\n\n\n\tfunction registerBroker(bytes4 _ipAddr) public payable\n\t{\n\t\trequire(msg.value >= REGISTER_FEE);\n\t\tfor (uint i = 0; i < brokers.length; i++) {\n\t\t\trequire(brokers[i].account != msg.sender);\n\t\t}\n\n\t\tbalances[msg.sender] += msg.value;\n\t\tbrokers.push(Broker({\n\t\t\taccount: payable(msg.sender), \n\t\t\tipAddr: _ipAddr\n\t\t}));\n\t}\n\n\tfunction getBrokers() public view returns(Broker[] memory)\n\t{\n\t\treturn brokers;\n\t}\n\n\n    function VerifyMessage(bytes32 _hashedMessage, uint8 _v, bytes32 _r, bytes32 _s) \n\t\tpublic pure returns (address) \n\t{\n        bytes memory prefix = \"\\x19Ethereum Signed Message:\\n32\";\n        bytes32 prefixedHashMessage = keccak256(abi.encodePacked(prefix, _hashedMessage));\n        address signer = ecrecover(prefixedHashMessage, _v, _r, _s);\n        return signer;\n    }\n\n\tfunction sendMessage(\n\t\tuint32 topic, \n\t\tbytes memory data, \n\t\tuint64 timestamp, \n\t\tbytes32 prev_hash, \n\t\tuint8 sig_v, \n\t\tbytes32 sig_r, \n\t\tbytes32 sig_s\n\t) public pure returns (address)\n\t{\n\t\treturn VerifyMessage(\n\t\t\t\tmessageHash(timestamp,topic, hashData(data), prev_hash), \n\t\t\t\tsig_v, sig_r, sig_s);\n\t}\n\tfunction sendMessage(\n\t\tuint32 topic, \n\t\tbytes memory data, \n\t\tuint64 timestamp, \n\t\tbytes32 prev_hash\n\t) public \n\t{\n\t\tmessages[msg.sender][topic].push(Message({\n\t\t\tdata: data,\n\t\t\ttimestamp: timestamp,\n\t\t\tprev_hash: prev_hash,\n\t\t\tblock_number: block.number\n\t\t}));\n\t\temit NewMessage(msg.sender, timestamp, topic, prev_hash, data);\n\n\t}\n\n\tfunction messageHash(\n\t\tuint64 timestamp,\n\t \tuint32 topic, \n\t\tbytes32 data_hash, \n\t\tbytes32 prev_hash\n    ) public pure returns (bytes32) {\n        return keccak256(abi.encodePacked(timestamp, topic, data_hash, prev_hash));\n    }\n\tfunction hashData(\n        bytes memory data\n    ) public pure returns (bytes32) {\n        return keccak256(data);\n    }\n\n\tfunction hashOpeningSub(\n\t\tuint64 timestamp,\n\t\tuint32 topic,\n        address subscriber,\n\t\tbytes32 prev_hash\n    ) public pure returns (bytes32) {\n        return keccak256(abi.encodePacked(timestamp, topic, subscriber, prev_hash));\n    }\n\n\tfunction ackHash(\n\t\tuint8 sig_v,\n\t\tbytes32 sig_r,\n\t\tbytes32 sig_s\n    ) public pure returns (bytes32) {\n        return keccak256(abi.encodePacked(sig_v, sig_r, sig_s));\n    }\n\n\tfunction _accuse_check_message(\n\t\tuint defendant_id,\n\t \tuint32 topic, \n\t\tbytes32 prev_hash, \n\t\tbytes32 data_hash,\n\t\tuint64 timestamp, \n\t\tuint8 sig_v,\n\t\tbytes32[2] memory sig_rs\n\t\t\n\t\t) private view\n\t{\n\t\taddress defendant = brokers[defendant_id].account;\n\t\tbytes32 msgHash = messageHash(timestamp,topic,data_hash,prev_hash);\n\t\trequire(defendant == VerifyMessage(\n\t\t\tmsgHash, \n\t\t\tsig_v, sig_rs[0], sig_rs[1])\n\t\t);\n\t}\n\tfunction _accuse_check_openning(\n\t\tuint defendant_id,\n\t \tuint32 topic, \n\n\t\tuint64 open_timestamp,\n\t\tbytes32 open_prev_hash,\n\t\tuint8   open_sig_v,\n\t\tbytes32[2] memory open_sig_rs\n\t\t\n\t\t) private view\n\t{\n\t\taddress defendant = brokers[defendant_id].account;\n\t\trequire(defendant == VerifyMessage(\n\t\t\thashOpeningSub(open_timestamp, topic, msg.sender, open_prev_hash), \n\t\t\topen_sig_v, open_sig_rs[0], open_sig_rs[1])\n\t\t);\n\n\t}\n\n\tfunction accuse(\n\t\tuint defendant_id,\n\t \tuint32 topic, \n\t\tbytes32 prev_hash, \n\t\tbytes32 data_hash,\n\t\tuint64 timestamp, \n\t\tuint8 sig_v,\n\t\tbytes32[2] memory sig_rs,\n\t\t//bytes32 sig_s,\n\n\t\tuint64 open_timestamp,\n\t\tbytes32 open_prev_hash,\n\t\tuint8   open_sig_v,\n\t\tbytes32[2] memory open_sig_rs\n\t\t//bytes32 open_sig_s\n\t\t\n\t\t) public payable\n\t{\n\t\trequire(msg.value >= FINE);\n\t\trequire(block.timestamp >= timestamp + (MESSAGE_MAX_DELAY_HOURS * 1 hours));\n\n\t\t_accuse_check_message(defendant_id, topic,prev_hash, data_hash, timestamp, sig_v, sig_rs);\n\t\t_accuse_check_openning(defendant_id, topic, open_timestamp, open_prev_hash, open_sig_v, open_sig_rs);\n\n\t\tbalances[msg.sender] += msg.value;\n\n\t\taccusations.push(Accusation({\n\t\t\taccuser: payable(msg.sender), \n\t\t\tdefendant_id: defendant_id, \n\t\t\ttopic: topic, \n\t\t\ttimestamp: timestamp,\n\t\t\tdata_hash: data_hash, \n\t\t\tprev_hash: prev_hash, \n\t\t\tsig_v: sig_v,\n\t\t\tsig_r: sig_rs[0],\n\t\t\tsig_s: sig_rs[1],\n\t\t\tvalid: true,\n\t\t\tdeadline: block.timestamp + (ACCUSATION_DEADLINE_DAYS * 1 days),\n\t\t\tblock_number: block.number,\n\t\t\topen_timestamp: open_timestamp,\n\t\t\topen_prev_hash: open_prev_hash,\n\t\t\topen_sig_v: open_sig_v,\n\t\t\topen_sig_r: open_sig_rs[0],\n\t\t\topen_sig_s: open_sig_rs[1]\n\t\t}));\n\t}\n\n\tfunction defendClosedSubOnChain(\n\t\tuint32 accusation_id, \n\t\tuint32 message_id)\n\t\tpublic\n\t{\n\t\tuint32 topic = accusations[accusation_id].topic;\n\t\tuint defendant_id = accusations[accusation_id].defendant_id;\n\t\taddress defendant = brokers[defendant_id].account;\n\n\t\tuint64 timestamp = accusations[accusation_id].timestamp;\n\n\t\tbytes32 open_hash = hashOpeningSub(\n\t\t\taccusations[accusation_id].open_timestamp,\n\t\t\taccusations[accusation_id].topic,\n\t\t\taccusations[accusation_id].accuser,\n\t\t\taccusations[accusation_id].open_prev_hash);\n\n\t\t// m is a closing message\n\t\tMessage storage m = messages[defendant][topic][message_id]; \n\n\t\trequire(m.timestamp < timestamp);\t\t\n\t\trequire(m.block_number < accusations[accusation_id].block_number);\n\t\trequire(bytesToBytes32(m.data) == open_hash);\n\n\t\t_payeAccuserFine(accusation_id);\n\t\t\n\t}\n\tfunction defendClosedSubOffChain(\n\t\tuint32 accusation_id,\n\n\t\t// the closing message\n\t\tuint32 topic, \n\t\tuint64 timestamp,\n\t\tbytes memory data,\n\t\tbytes32 prevHash,\n\t\t\n\t\t// the signature of its hash by the accuser (i.e. the ack of the message)\n\t\tuint8 _v, \n\t\tbytes32 _r, \n\t\tbytes32 _s)\n\t\tpublic\n\t{\n\t\t\n\t\t// A message has been sent before the accusing message\n\t\t// and appears in the same subscription (same topic, same publisher)\n\t\trequire(topic == accusations[accusation_id].topic);\n\t\trequire(msg.sender == brokers[accusations[accusation_id].defendant_id].account);\n\t\trequire(timestamp < accusations[accusation_id].timestamp);\n\n\t\t//it has been akcnowledged\n\t\tbytes32 msgHash = messageHash(timestamp, topic, hashData(data), prevHash);\n\t\taddress accuser = accusations[accusation_id].accuser;\n\t\trequire(accuser == VerifyMessage(msgHash, _v, _r, _s));\n\n\t\t// and it is a closing message\n\t\tbytes32 open_hash = hashOpeningSub(\n\t\t\taccusations[accusation_id].open_timestamp,\n\t\t\taccusations[accusation_id].topic,\n\t\t\taccusations[accusation_id].accuser,\n\t\t\taccusations[accusation_id].open_prev_hash);\n\n\t\trequire(bytesToBytes32(data) == open_hash);\n\n\t\t_payeAccuserFine(accusation_id);\n\t\t\n\t}\n\tfunction bytesToBytes32(bytes memory b) private pure returns (bytes32) {\n\t\trequire(b.length == 32);\n\t\tbytes32 out;\n\t\tfor (uint i = 0; i < 32; i++) {\n\t\t\tout |= bytes32(b[i]) >> (i * 8);\n\t\t}\n\t\treturn out;\n\t}\n\n\tfunction defendOnChain(uint32 accusation_id, uint32 message_id)\n\t\tpublic\n\t{\n\t\tuint32 topic = accusations[accusation_id].topic;\n\t\tuint defendant_id = accusations[accusation_id].defendant_id;\n\t\taddress defendant = brokers[defendant_id].account;\n\n\t\tbytes32 missing_hash = accusations[accusation_id].prev_hash;\n\n\t\tMessage storage m = messages[defendant][topic][message_id]; \n\t\tbytes32 proof_hash = messageHash(m.timestamp, topic, hashData(m.data), m.prev_hash); \n\t\t\n\t\trequire(missing_hash == proof_hash);\n\t\trequire(accusations[accusation_id].block_number > m.block_number);\n\t\t\n\t\t_payeAccuserFine(accusation_id);\n\t\t\n\t}\n\tfunction defendOffChain(\n\t\tuint32 accusation_id, \n\n\t\t// the message\n\t\tuint32 topic, \n\t\tuint64 timestamp,\n\t\tbytes32 dataHash,\n\t\tbytes32 prevHash,\n\t\t\n\t\t// the signature of its hash by the accuser (i.e. the ack of the message)\n\t\tuint8 _v, \n\t\tbytes32 _r, \n\t\tbytes32 _s)\n\t\tpublic\n\t{\n\t\t// It is a message that has been sent after the accusing message\n\t\t// and that appear in the same subscription (same topic, same publisher)\n\t\trequire(topic == accusations[accusation_id].topic);\n\t\trequire(msg.sender == brokers[accusations[accusation_id].defendant_id].account);\n\t\trequire(timestamp > accusations[accusation_id].timestamp);\n\n\t\t// and it has been acknowledged\n\t\tbytes32 msgHash = messageHash(timestamp, topic, dataHash, prevHash);\n\t\taddress accuser = accusations[accusation_id].accuser;\n\t\trequire(accuser == VerifyMessage(msgHash, _v, _r, _s));\n\n\t\t\t\t\n\t\t_payeAccuserFine(accusation_id);\n\t}\n\n\tfunction redeemAccusationFine(uint accusation_id) private {\n\n\t\trequire(accusations[accusation_id].valid);\n\t\trequire(accusations[accusation_id].deadline < block.timestamp);\n\n\t\taddress accuser = accusations[accusation_id].accuser;\n\t\tuint defendant_id = accusations[accusation_id].defendant_id;\n\t\taddress defendant = brokers[defendant_id].account;\n\n\t\trequire(balances[defendant] >= FINE);\n\t\trequire(balances[accuser] >= FINE);\n\n\t\tbalances[defendant] -= FINE;\n\t\tbalances[accuser] -= FINE;\n\t\tpayable(accuser).transfer( 2 * FINE );\n\n\t\t// after the payment, the broker should still be able to paye a fine\n\t\tif(balances[defendant] < FINE) {\n\t\t\temit BrokerInvalid(defendant_id);\n\t\t}\n\t}\n\n\tfunction _payeAccuserFine(uint accusation_id) private {\n\n\t\taddress accuser = accusations[accusation_id].accuser;\n\t\taddress defendant = brokers[accusations[accusation_id].defendant_id].account;\n\t\taccusations[accusation_id].valid = false;\n\n\t\trequire(balances[accuser] >= FINE);\n\n\t\tbalances[accuser] -= FINE;\n\t\tbalances[defendant] += FINE;\n\t\n\t}\n\n\tfunction getBalance(address addr) public view returns(uint) {\n\t\treturn balances[addr];\n\t}\n\n}\n",
  "sourcePath": "/Users/quentinbramas/Projects/SUPRA/contracts/Supra.sol",
  "compiler": {
    "name": "solc",
    "version": "0.8.13+commit.abaa5c0e.Emscripten.clang"
  },
  "schemaVersion": "3.4.6",
  "updatedAt": "2022-04-14T12:47:59.617Z",
  "devdoc": {
    "kind": "dev",
    "methods": {},
    "version": 1
  },
  "userdoc": {
    "kind": "user",
    "methods": {},
    "version": 1
  }
}